{
  "address": "0x9f02A9E371F9c4a396298A4B51D18c3825dD4529",
  "abi": [
    {
      "inputs": [],
      "stateMutability": "nonpayable",
      "type": "constructor"
    },
    {
      "anonymous": false,
      "inputs": [
        {
          "indexed": true,
          "internalType": "address",
          "name": "caller",
          "type": "address"
        },
        {
          "indexed": false,
          "internalType": "uint256",
          "name": "previousAmount",
          "type": "uint256"
        },
        {
          "indexed": false,
          "internalType": "uint256",
          "name": "newAmount",
          "type": "uint256"
        }
      ],
      "name": "BonusMultiplier",
      "type": "event"
    },
    {
      "anonymous": false,
      "inputs": [
        {
          "indexed": true,
          "internalType": "address",
          "name": "user",
          "type": "address"
        },
        {
          "indexed": true,
          "internalType": "uint256",
          "name": "pid",
          "type": "uint256"
        },
        {
          "indexed": false,
          "internalType": "uint256",
          "name": "amount",
          "type": "uint256"
        }
      ],
      "name": "Deposit",
      "type": "event"
    },
    {
      "anonymous": false,
      "inputs": [
        {
          "indexed": true,
          "internalType": "address",
          "name": "user",
          "type": "address"
        },
        {
          "indexed": true,
          "internalType": "uint256",
          "name": "pid",
          "type": "uint256"
        },
        {
          "indexed": false,
          "internalType": "uint256",
          "name": "amount",
          "type": "uint256"
        }
      ],
      "name": "EmergencyWithdraw",
      "type": "event"
    },
    {
      "anonymous": false,
      "inputs": [
        {
          "indexed": true,
          "internalType": "address",
          "name": "caller",
          "type": "address"
        },
        {
          "indexed": false,
          "internalType": "uint256",
          "name": "previousAmount",
          "type": "uint256"
        },
        {
          "indexed": false,
          "internalType": "uint256",
          "name": "newAmount",
          "type": "uint256"
        }
      ],
      "name": "EmissionRateUpdated",
      "type": "event"
    },
    {
      "anonymous": false,
      "inputs": [
        {
          "indexed": true,
          "internalType": "address",
          "name": "caller",
          "type": "address"
        },
        {
          "indexed": false,
          "internalType": "uint256",
          "name": "amount",
          "type": "uint256"
        },
        {
          "indexed": false,
          "internalType": "uint256",
          "name": "totalBalance",
          "type": "uint256"
        }
      ],
      "name": "Funded",
      "type": "event"
    },
    {
      "anonymous": false,
      "inputs": [
        {
          "indexed": true,
          "internalType": "address",
          "name": "previousOperator",
          "type": "address"
        },
        {
          "indexed": true,
          "internalType": "address",
          "name": "newOperator",
          "type": "address"
        }
      ],
      "name": "OperatorTransferred",
      "type": "event"
    },
    {
      "anonymous": false,
      "inputs": [
        {
          "indexed": true,
          "internalType": "address",
          "name": "previousOwner",
          "type": "address"
        },
        {
          "indexed": true,
          "internalType": "address",
          "name": "newOwner",
          "type": "address"
        }
      ],
      "name": "OwnershipTransferred",
      "type": "event"
    },
    {
      "anonymous": false,
      "inputs": [
        {
          "indexed": true,
          "internalType": "address",
          "name": "user",
          "type": "address"
        },
        {
          "indexed": true,
          "internalType": "uint256",
          "name": "pid",
          "type": "uint256"
        },
        {
          "indexed": false,
          "internalType": "uint256",
          "name": "amountLockedUp",
          "type": "uint256"
        }
      ],
      "name": "RewardLockedUp",
      "type": "event"
    },
    {
      "anonymous": false,
      "inputs": [
        {
          "indexed": true,
          "internalType": "address",
          "name": "user",
          "type": "address"
        },
        {
          "indexed": true,
          "internalType": "uint256",
          "name": "pid",
          "type": "uint256"
        },
        {
          "indexed": false,
          "internalType": "uint256",
          "name": "amount",
          "type": "uint256"
        }
      ],
      "name": "Withdraw",
      "type": "event"
    },
    {
      "inputs": [],
      "name": "BONUS_MULTIPLIER",
      "outputs": [
        {
          "internalType": "uint256",
          "name": "",
          "type": "uint256"
        }
      ],
      "stateMutability": "view",
      "type": "function"
    },
    {
      "inputs": [],
      "name": "MAXIMUM_DEPOSIT_FEE_RATE",
      "outputs": [
        {
          "internalType": "uint16",
          "name": "",
          "type": "uint16"
        }
      ],
      "stateMutability": "view",
      "type": "function"
    },
    {
      "inputs": [],
      "name": "MAXIMUM_HARVEST_INTERVAL",
      "outputs": [
        {
          "internalType": "uint256",
          "name": "",
          "type": "uint256"
        }
      ],
      "stateMutability": "view",
      "type": "function"
    },
    {
      "inputs": [],
      "name": "MAX_POGO_PER_BLOCK",
      "outputs": [
        {
          "internalType": "uint256",
          "name": "",
          "type": "uint256"
        }
      ],
      "stateMutability": "view",
      "type": "function"
    },
    {
      "inputs": [
        {
          "internalType": "uint256",
          "name": "_allocPoint",
          "type": "uint256"
        },
        {
          "internalType": "contract IERC20",
          "name": "_lpToken",
          "type": "address"
        },
        {
          "internalType": "uint16",
          "name": "_depositFeeBP",
          "type": "uint16"
        },
        {
          "internalType": "uint256",
          "name": "_harvestInterval",
          "type": "uint256"
        },
        {
          "internalType": "bool",
          "name": "_withUpdate",
          "type": "bool"
        }
      ],
      "name": "add",
      "outputs": [],
      "stateMutability": "nonpayable",
      "type": "function"
    },
    {
      "inputs": [
        {
          "internalType": "uint256",
          "name": "_pid",
          "type": "uint256"
        },
        {
          "internalType": "address",
          "name": "_user",
          "type": "address"
        }
      ],
      "name": "canHarvest",
      "outputs": [
        {
          "internalType": "bool",
          "name": "",
          "type": "bool"
        }
      ],
      "stateMutability": "view",
      "type": "function"
    },
    {
      "inputs": [
        {
          "internalType": "uint256",
          "name": "_pid",
          "type": "uint256"
        }
      ],
      "name": "collectFees",
      "outputs": [],
      "stateMutability": "nonpayable",
      "type": "function"
    },
    {
      "inputs": [
        {
          "internalType": "uint256",
          "name": "_pid",
          "type": "uint256"
        }
      ],
      "name": "compound",
      "outputs": [],
      "stateMutability": "nonpayable",
      "type": "function"
    },
    {
      "inputs": [
        {
          "internalType": "uint256",
          "name": "_pid",
          "type": "uint256"
        },
        {
          "internalType": "uint256",
          "name": "_amount",
          "type": "uint256"
        }
      ],
      "name": "deposit",
      "outputs": [],
      "stateMutability": "nonpayable",
      "type": "function"
    },
    {
      "inputs": [],
      "name": "devAddress",
      "outputs": [
        {
          "internalType": "address",
          "name": "",
          "type": "address"
        }
      ],
      "stateMutability": "view",
      "type": "function"
    },
    {
      "inputs": [
        {
          "internalType": "uint256",
          "name": "_pid",
          "type": "uint256"
        }
      ],
      "name": "emergencyWithdraw",
      "outputs": [],
      "stateMutability": "nonpayable",
      "type": "function"
    },
    {
      "inputs": [
        {
          "internalType": "uint256",
          "name": "_amount",
          "type": "uint256"
        }
      ],
      "name": "fundMasterChef",
      "outputs": [],
      "stateMutability": "payable",
      "type": "function"
    },
    {
      "inputs": [
        {
          "internalType": "uint256",
          "name": "_pid",
          "type": "uint256"
        }
      ],
      "name": "getDepositFees",
      "outputs": [
        {
          "internalType": "uint256",
          "name": "",
          "type": "uint256"
        }
      ],
      "stateMutability": "view",
      "type": "function"
    },
    {
      "inputs": [
        {
          "internalType": "uint256",
          "name": "_from",
          "type": "uint256"
        },
        {
          "internalType": "uint256",
          "name": "_to",
          "type": "uint256"
        }
      ],
      "name": "getMultiplier",
      "outputs": [
        {
          "internalType": "uint256",
          "name": "",
          "type": "uint256"
        }
      ],
      "stateMutability": "view",
      "type": "function"
    },
    {
      "inputs": [
        {
          "internalType": "uint256",
          "name": "_pid",
          "type": "uint256"
        }
      ],
      "name": "harvestPogo",
      "outputs": [],
      "stateMutability": "nonpayable",
      "type": "function"
    },
    {
      "inputs": [],
      "name": "massUpdatePools",
      "outputs": [],
      "stateMutability": "nonpayable",
      "type": "function"
    },
    {
      "inputs": [],
      "name": "operator",
      "outputs": [
        {
          "internalType": "address",
          "name": "",
          "type": "address"
        }
      ],
      "stateMutability": "view",
      "type": "function"
    },
    {
      "inputs": [],
      "name": "owner",
      "outputs": [
        {
          "internalType": "address",
          "name": "",
          "type": "address"
        }
      ],
      "stateMutability": "view",
      "type": "function"
    },
    {
      "inputs": [
        {
          "internalType": "uint256",
          "name": "_pid",
          "type": "uint256"
        },
        {
          "internalType": "address",
          "name": "_user",
          "type": "address"
        }
      ],
      "name": "pendingPogo",
      "outputs": [
        {
          "internalType": "uint256",
          "name": "",
          "type": "uint256"
        }
      ],
      "stateMutability": "view",
      "type": "function"
    },
    {
      "inputs": [],
      "name": "pogo",
      "outputs": [
        {
          "internalType": "address",
          "name": "",
          "type": "address"
        }
      ],
      "stateMutability": "view",
      "type": "function"
    },
    {
      "inputs": [],
      "name": "pogoPerBlock",
      "outputs": [
        {
          "internalType": "uint256",
          "name": "",
          "type": "uint256"
        }
      ],
      "stateMutability": "view",
      "type": "function"
    },
    {
      "inputs": [
        {
          "internalType": "uint256",
          "name": "",
          "type": "uint256"
        }
      ],
      "name": "poolInfo",
      "outputs": [
        {
          "internalType": "contract IERC20",
          "name": "lpToken",
          "type": "address"
        },
        {
          "internalType": "uint256",
          "name": "allocPoint",
          "type": "uint256"
        },
        {
          "internalType": "uint256",
          "name": "lastRewardBlock",
          "type": "uint256"
        },
        {
          "internalType": "uint256",
          "name": "accPogoPerShare",
          "type": "uint256"
        },
        {
          "internalType": "uint16",
          "name": "depositFeeBP",
          "type": "uint16"
        },
        {
          "internalType": "uint256",
          "name": "harvestInterval",
          "type": "uint256"
        },
        {
          "internalType": "uint256",
          "name": "totalLp",
          "type": "uint256"
        },
        {
          "internalType": "uint256",
          "name": "depositFees",
          "type": "uint256"
        }
      ],
      "stateMutability": "view",
      "type": "function"
    },
    {
      "inputs": [],
      "name": "poolLength",
      "outputs": [
        {
          "internalType": "uint256",
          "name": "",
          "type": "uint256"
        }
      ],
      "stateMutability": "view",
      "type": "function"
    },
    {
      "inputs": [],
      "name": "remainRewards",
      "outputs": [
        {
          "internalType": "uint256",
          "name": "",
          "type": "uint256"
        }
      ],
      "stateMutability": "view",
      "type": "function"
    },
    {
      "inputs": [],
      "name": "renounceOwnership",
      "outputs": [],
      "stateMutability": "nonpayable",
      "type": "function"
    },
    {
      "inputs": [
        {
          "internalType": "uint256",
          "name": "_pid",
          "type": "uint256"
        },
        {
          "internalType": "uint256",
          "name": "_allocPoint",
          "type": "uint256"
        },
        {
          "internalType": "uint16",
          "name": "_depositFeeBP",
          "type": "uint16"
        },
        {
          "internalType": "uint256",
          "name": "_harvestInterval",
          "type": "uint256"
        },
        {
          "internalType": "bool",
          "name": "_withUpdate",
          "type": "bool"
        }
      ],
      "name": "set",
      "outputs": [],
      "stateMutability": "nonpayable",
      "type": "function"
    },
    {
      "inputs": [
        {
          "internalType": "address",
          "name": "_devAddress",
          "type": "address"
        }
      ],
      "name": "setDevAddress",
      "outputs": [],
      "stateMutability": "nonpayable",
      "type": "function"
    },
    {
      "inputs": [
        {
          "internalType": "address",
          "name": "_address",
          "type": "address"
        }
      ],
      "name": "setPogoContractAddress",
      "outputs": [],
      "stateMutability": "nonpayable",
      "type": "function"
    },
    {
      "inputs": [
        {
          "internalType": "uint256",
          "name": "_pid",
          "type": "uint256"
        }
      ],
      "name": "setPogoId",
      "outputs": [],
      "stateMutability": "nonpayable",
      "type": "function"
    },
    {
      "inputs": [],
      "name": "startBlock",
      "outputs": [
        {
          "internalType": "uint256",
          "name": "",
          "type": "uint256"
        }
      ],
      "stateMutability": "view",
      "type": "function"
    },
    {
      "inputs": [],
      "name": "startFarming",
      "outputs": [],
      "stateMutability": "nonpayable",
      "type": "function"
    },
    {
      "inputs": [],
      "name": "totalAllocPoint",
      "outputs": [
        {
          "internalType": "uint256",
          "name": "",
          "type": "uint256"
        }
      ],
      "stateMutability": "view",
      "type": "function"
    },
    {
      "inputs": [],
      "name": "totalLockedUpRewards",
      "outputs": [
        {
          "internalType": "uint256",
          "name": "",
          "type": "uint256"
        }
      ],
      "stateMutability": "view",
      "type": "function"
    },
    {
      "inputs": [],
      "name": "totalPogoInPools",
      "outputs": [
        {
          "internalType": "uint256",
          "name": "",
          "type": "uint256"
        }
      ],
      "stateMutability": "view",
      "type": "function"
    },
    {
      "inputs": [
        {
          "internalType": "address",
          "name": "newOperator",
          "type": "address"
        }
      ],
      "name": "transferOperator",
      "outputs": [],
      "stateMutability": "nonpayable",
      "type": "function"
    },
    {
      "inputs": [
        {
          "internalType": "address",
          "name": "newOwner",
          "type": "address"
        }
      ],
      "name": "transferOwnership",
      "outputs": [],
      "stateMutability": "nonpayable",
      "type": "function"
    },
    {
      "inputs": [
        {
          "internalType": "uint256",
          "name": "_pid",
          "type": "uint256"
        },
        {
          "internalType": "uint256",
          "name": "_allocPoint",
          "type": "uint256"
        },
        {
          "internalType": "bool",
          "name": "_withUpdate",
          "type": "bool"
        }
      ],
      "name": "updateAllocPoint",
      "outputs": [],
      "stateMutability": "nonpayable",
      "type": "function"
    },
    {
      "inputs": [
        {
          "internalType": "uint256",
          "name": "_bonus",
          "type": "uint256"
        }
      ],
      "name": "updateBonus",
      "outputs": [],
      "stateMutability": "nonpayable",
      "type": "function"
    },
    {
      "inputs": [
        {
          "internalType": "uint256",
          "name": "_pogoPerBlock",
          "type": "uint256"
        }
      ],
      "name": "updateEmissionRate",
      "outputs": [],
      "stateMutability": "nonpayable",
      "type": "function"
    },
    {
      "inputs": [
        {
          "internalType": "uint256",
          "name": "_pid",
          "type": "uint256"
        }
      ],
      "name": "updatePool",
      "outputs": [],
      "stateMutability": "nonpayable",
      "type": "function"
    },
    {
      "inputs": [
        {
          "internalType": "uint256",
          "name": "",
          "type": "uint256"
        },
        {
          "internalType": "address",
          "name": "",
          "type": "address"
        }
      ],
      "name": "userInfo",
      "outputs": [
        {
          "internalType": "uint256",
          "name": "amount",
          "type": "uint256"
        },
        {
          "internalType": "uint256",
          "name": "rewardDebt",
          "type": "uint256"
        },
        {
          "internalType": "uint256",
          "name": "rewardLockedUp",
          "type": "uint256"
        },
        {
          "internalType": "uint256",
          "name": "nextHarvestUntil",
          "type": "uint256"
        }
      ],
      "stateMutability": "view",
      "type": "function"
    },
    {
      "inputs": [
        {
          "internalType": "uint256",
          "name": "_pid",
          "type": "uint256"
        },
        {
          "internalType": "uint256",
          "name": "_amount",
          "type": "uint256"
        }
      ],
      "name": "withdraw",
      "outputs": [],
      "stateMutability": "nonpayable",
      "type": "function"
    }
  ],
  "transactionHash": "0x3fce9c5eff8975909ecc3f7fbe1a586635703a237767526fcc38d9f8d6f0dabb",
  "args": [],
  "solcInputHash": "95614a684c09876642a05d60e530b1bb",
  "bytecode": "0x6080604052600280546001600160a01b03199081167326565b07a123ee674a75fa182d51822ce8175e4c17909155600d6003556005805490911673a039fdb0f816023105f7d9f4bbc11f71cabb76f11790556502b55f2ef8d06006556503d1e3821000600755600160085563566d3e80600b55630190c5a8600c553480156200008757600080fd5b506200009333620000fc565b60018055620000a7436312cc03006200014c565b600c5560058054336001600160a01b0319918216811790925560048054909116821790556040516000907f74da04524d50c64947f5dd5381ef1a4dca5cba8ed1d816243f9e48aa0b5617ed908290a362000173565b600080546001600160a01b038381166001600160a01b0319831681178455604051919092169283917f8be0079c531659141344cd1fd0a4f28419497f9722a3daafe3b4186f6b6457e09190a35050565b600082198211156200016e57634e487b7160e01b600052601160045260246000fd5b500190565b61336080620001836000396000f3fe6080604052600436106102d15760003560e01c80637f2e0ec211610179578063afbcfea1116100d6578063d0d41fe11161008a578063e80e6fd311610064578063e80e6fd3146107f7578063f2fde38b14610817578063f3a7ff631461083757600080fd5b8063d0d41fe11461079f578063de73149d146107bf578063e2bbb158146107d757600080fd5b8063b17acdcd116100bb578063b17acdcd1461073f578063bde4aeca1461075f578063c6de8ce71461077f57600080fd5b8063afbcfea114610714578063b16d2b581461072957600080fd5b80638dbb1e3a1161012d5780639f8dbb7b116101125780639f8dbb7b146106b4578063aa5f7e26146106d4578063af018de8146106f457600080fd5b80638dbb1e3a1461062757806393f1a40b1461064757600080fd5b8063812c64f11161015e578063812c64f1146105cb5780638aa28550146105f35780638da5cb5b1461060957600080fd5b80637f2e0ec2146105965780638029e123146105ab57600080fd5b8063441a3e701161023257806351eb05a6116101e657806361a574db116101c057806361a574db14610556578063630b5ba11461056c578063715018a61461058157600080fd5b806351eb05a6146104f85780635312ea8e14610518578063570ca7351461053857600080fd5b806347ad959e1161021757806347ad959e146104af57806347eb75ca146104c257806348cd4cb1146104e257600080fd5b8063441a3e7014610479578063474fa6301461049957600080fd5b80632143e545116102895780632e6c998d1161026e5780632e6c998d146103fb5780633456aebd1461042b5780633ad10ef61461044157600080fd5b80632143e545146103bb57806329605e77146103db57600080fd5b80630ecac91f116102ba5780630ecac91f1461031c5780631526fe271461033c57806317caf6f1146103a557600080fd5b8063081e3eda146102d65780630ba84cd2146102fa575b600080fd5b3480156102e257600080fd5b506009545b6040519081526020015b60405180910390f35b34801561030657600080fd5b5061031a610315366004613042565b610857565b005b34801561032857600080fd5b506102e7610337366004613070565b610983565b34801561034857600080fd5b5061035c610357366004613042565b610aab565b604080516001600160a01b039099168952602089019790975295870194909452606086019290925261ffff16608085015260a084015260c083015260e0820152610100016102f1565b3480156103b157600080fd5b506102e7600b5481565b3480156103c757600080fd5b5061031a6103d63660046130c0565b610b10565b3480156103e757600080fd5b5061031a6103f6366004613114565b610d02565b34801561040757600080fd5b5061041b610416366004613070565b610e64565b60405190151581526020016102f1565b34801561043757600080fd5b506102e760075481565b34801561044d57600080fd5b50600554610461906001600160a01b031681565b6040516001600160a01b0390911681526020016102f1565b34801561048557600080fd5b5061031a610494366004613131565b610ea4565b3480156104a557600080fd5b506102e7600d5481565b61031a6104bd366004613042565b611107565b3480156104ce57600080fd5b5061031a6104dd366004613042565b611343565b3480156104ee57600080fd5b506102e7600c5481565b34801561050457600080fd5b5061031a610513366004613042565b611429565b34801561052457600080fd5b5061031a610533366004613042565b611517565b34801561054457600080fd5b506004546001600160a01b0316610461565b34801561056257600080fd5b506102e760065481565b34801561057857600080fd5b5061031a6116ca565b34801561058d57600080fd5b5061031a6117df565b3480156105a257600080fd5b506102e7611845565b3480156105b757600080fd5b5061031a6105c6366004613114565b611886565b3480156105d757600080fd5b506105e0602a81565b60405161ffff90911681526020016102f1565b3480156105ff57600080fd5b506102e760085481565b34801561061557600080fd5b506000546001600160a01b0316610461565b34801561063357600080fd5b506102e7610642366004613131565b611958565b34801561065357600080fd5b50610694610662366004613070565b600a60209081526000928352604080842090915290825290208054600182015460028301546003909301549192909184565b6040805194855260208501939093529183015260608201526080016102f1565b3480156106c057600080fd5b5061031a6106cf366004613042565b61196c565b3480156106e057600080fd5b5061031a6106ef366004613042565b611a56565b34801561070057600080fd5b5061031a61070f366004613153565b611c6d565b34801561072057600080fd5b5061031a611f5c565b34801561073557600080fd5b506102e7600e5481565b34801561074b57600080fd5b5061031a61075a366004613042565b61205d565b34801561076b57600080fd5b5061031a61077a36600461318b565b61217c565b34801561078b57600080fd5b50600254610461906001600160a01b031681565b3480156107ab57600080fd5b5061031a6107ba366004613114565b612262565b3480156107cb57600080fd5b506102e76304fd7d8081565b3480156107e357600080fd5b5061031a6107f2366004613131565b612334565b34801561080357600080fd5b506102e7610812366004613042565b612800565b34801561082357600080fd5b5061031a610832366004613114565b612888565b34801561084357600080fd5b5061031a610852366004613042565b61296a565b6004546001600160a01b031633148061088957503361087e6000546001600160a01b031690565b6001600160a01b0316145b6108e65760405162461bcd60e51b8152602060048201526024808201527f4f70657261746f723a2063616c6c6572206973206e6f7420746865206f70657260448201526330ba37b960e11b60648201526084015b60405180910390fd5b6007548111156109385760405162461bcd60e51b815260206004820152601760248201527f506f676f2070657220626c6f636b20746f6f206869676800000000000000000060448201526064016108dd565b6109406116ca565b600654604080519182526020820183905233917feedc6338c9c1ad8f3cd6c90dd09dbe98dbd57e610d3e59a17996d07acb0d9511910160405180910390a2600655565b60008060098481548110610999576109996131c4565b60009182526020808320878452600a825260408085206001600160a01b038916865290925292206003600890920290920190810154600682015460028301549294509091431180156109ea57508015155b15610a565760006109ff856002015443611958565b90506000610a32600b54610a2c8860010154610a26600654876129c490919063ffffffff16565b906129c4565b906129d0565b9050610a51610a4a84610a2c8464e8d4a510006129c4565b85906129dc565b935050505b6000610a868460010154610a8064e8d4a51000610a2c8789600001546129c490919063ffffffff16565b906129e8565b9050610a9f8460020154826129dc90919063ffffffff16565b98975050505050505050565b60098181548110610abb57600080fd5b6000918252602090912060089091020180546001820154600283015460038401546004850154600586015460068701546007909701546001600160a01b03909616975093959294919361ffff90911692909188565b6000546001600160a01b03163314610b6a5760405162461bcd60e51b815260206004820181905260248201527f4f776e61626c653a2063616c6c6572206973206e6f7420746865206f776e657260448201526064016108dd565b602a61ffff84161115610bbf5760405162461bcd60e51b815260206004820152601960248201527f7365743a206465706f7369742066656520746f6f20686967680000000000000060448201526064016108dd565b6304fd7d80821115610c135760405162461bcd60e51b815260206004820152601d60248201527f7365743a20696e76616c6964206861727665737420696e74657276616c00000060448201526064016108dd565b8015610c2157610c216116ca565b610c6484610c5e60098881548110610c3b57610c3b6131c4565b906000526020600020906008020160010154600b546129e890919063ffffffff16565b906129dc565b600b819055508360098681548110610c7e57610c7e6131c4565b9060005260206000209060080201600101819055508260098681548110610ca757610ca76131c4565b906000526020600020906008020160040160006101000a81548161ffff021916908361ffff1602179055508160098681548110610ce657610ce66131c4565b9060005260206000209060080201600501819055505050505050565b6004546001600160a01b0316331480610d34575033610d296000546001600160a01b031690565b6001600160a01b0316145b610d8c5760405162461bcd60e51b8152602060048201526024808201527f4f70657261746f723a2063616c6c6572206973206e6f7420746865206f70657260448201526330ba37b960e11b60648201526084016108dd565b6001600160a01b038116610e085760405162461bcd60e51b815260206004820152603260248201527f5472616e736665724f70657261746f723a206e6577206f70657261746f72206960448201527f7320746865207a65726f2061646472657373000000000000000000000000000060648201526084016108dd565b6004546040516001600160a01b038084169216907f74da04524d50c64947f5dd5381ef1a4dca5cba8ed1d816243f9e48aa0b5617ed90600090a3600480546001600160a01b0319166001600160a01b0392909216919091179055565b6000600c544310158015610e9d57506000838152600a602090815260408083206001600160a01b03861684529091529020600301544210155b9392505050565b600260015403610ef65760405162461bcd60e51b815260206004820152601f60248201527f5265656e7472616e637947756172643a207265656e7472616e742063616c6c0060448201526064016108dd565b6002600181905550600060098381548110610f1357610f136131c4565b60009182526020808320868452600a825260408085203386529092529220805460089092029092019250831115610fb25760405162461bcd60e51b815260206004820152603260248201527f57697468647261773a205573657220616d6f756e74206c657373207468616e2060448201527f7769746864726177616c20616d6f756e742e000000000000000000000000000060648201526084016108dd565b828260060154101561102c5760405162461bcd60e51b815260206004820152603460248201527f57697468647261773a20506f6f6c20746f74616c204c50206c6573732074686560448201527f6e207769746864726177616c20616d6f756e742e00000000000000000000000060648201526084016108dd565b61103584611429565b61103f84336129f4565b82156110a557805461105190846129e8565b8155600682015461106290846129e8565b600683015560025482546001600160a01b0391821691160361108f57600e5461108b90846129e8565b600e555b81546110a5906001600160a01b03163385612b8d565b600382015481546110c09164e8d4a5100091610a2c916129c4565b6001820155604051838152849033907ff279e6a1f5e320cca91135676d9cb6e44ca8a08c0b88342bcdb1144f6511b568906020015b60405180910390a35050600180555050565b6004546001600160a01b031633148061113957503361112e6000546001600160a01b031690565b6001600160a01b0316145b6111915760405162461bcd60e51b8152602060048201526024808201527f4f70657261746f723a2063616c6c6572206973206e6f7420746865206f70657260448201526330ba37b960e11b60648201526084016108dd565b600254604051636eb1769f60e11b81523360048201523060248201526001600160a01b03909116908290829063dd62ed3e90604401602060405180830381865afa1580156111e3573d6000803e3d6000fd5b505050506040513d601f19601f8201168201806040525081019061120791906131da565b101561127b5760405162461bcd60e51b815260206004820152603d60248201527f596f75206e65656420746f207365742074686520616c6c6f77616e636520666f60448201527f72207374617220746f207468652066756e64696e6720616d6f756e742e00000060648201526084016108dd565b6112906001600160a01b038216333085612c3b565b600e546040516370a0823160e01b815230600482015233917fcd909ec339185c4598a4096e174308fbdf136d117f230960f873a2f2e81f63af918591611326916001600160a01b038716906370a08231906024015b602060405180830381865afa158015611302573d6000803e3d6000fd5b505050506040513d601f19601f82011682018060405250810190610a8091906131da565b604080519283526020830191909152015b60405180910390a25050565b6002600154036113955760405162461bcd60e51b815260206004820152601f60248201527f5265656e7472616e637947756172643a207265656e7472616e742063616c6c0060448201526064016108dd565b60026001819055506000600982815481106113b2576113b26131c4565b60009182526020808320858452600a8252604080852033808752935290932060089092029092019250906113e7908490610e64565b15611420576113f583611429565b6113ff83336129f4565b6003820154815461141a9164e8d4a5100091610a2c916129c4565b60018201555b50506001805550565b60006009828154811061143e5761143e6131c4565b906000526020600020906008020190508060020154431161145d575050565b6006810154158061147057506001810154155b1561147f574360029091015550565b600061148f826002015443611958565b905060006114b6600b54610a2c8560010154610a26600654876129c490919063ffffffff16565b90506114e66114db8460060154610a2c64e8d4a51000856129c490919063ffffffff16565b6003850154906129dc565b6003840155436002840155600554611511906001600160a01b031661150c83600a6129d0565b612c8c565b50505050565b6002600154036115695760405162461bcd60e51b815260206004820152601f60248201527f5265656e7472616e637947756172643a207265656e7472616e742063616c6c0060448201526064016108dd565b6002600181905550600060098281548110611586576115866131c4565b60009182526020808320858452600a8252604080852033865290925292208054600892909202909201600681015490935081111561162c5760405162461bcd60e51b815260206004820152602b60248201527f456d657267656e637957697468647261773a20506f6f6c20746f74616c204c5060448201527f206e6f7420656e6f75676800000000000000000000000000000000000000000060648201526084016108dd565b600080835560018301819055600283018190556003830155600683015461165390826129e8565b600684015560025483546001600160a01b0391821691160361168057600e5461167c90826129e8565b600e555b8254611696906001600160a01b03163383612b8d565b604051818152849033907fbb757047c2b5f3974fe26b7c10f732e7bce710b0952a71082702781e62ae0595906020016110f5565b6009546000805b828110156117c4576000600982815481106116ee576116ee6131c4565b906000526020600020906008020190508060020154431161170f57506117b4565b6006810154158061172257506001810154155b1561173357436002909101556117b4565b6000611743826002015443611958565b9050600061176a600b54610a2c8560010154610a26600654876129c490919063ffffffff16565b905061178f6114db8460060154610a2c64e8d4a51000856129c490919063ffffffff16565b60038401554360028401556117af6117a882600a6129d0565b86906129dc565b505050505b6117bd81613209565b90506116d1565b506005546117db906001600160a01b031682612c8c565b5050565b6000546001600160a01b031633146118395760405162461bcd60e51b815260206004820181905260248201527f4f776e61626c653a2063616c6c6572206973206e6f7420746865206f776e657260448201526064016108dd565b6118436000612d75565b565b600e546002546040516370a0823160e01b81523060048201526000926118819290916001600160a01b03909116906370a08231906024016112e5565b905090565b6000546001600160a01b031633146118e05760405162461bcd60e51b815260206004820181905260248201527f4f776e61626c653a2063616c6c6572206973206e6f7420746865206f776e657260448201526064016108dd565b6001600160a01b0381166119365760405162461bcd60e51b815260206004820152601460248201527f416464726573732069732030206164647265737300000000000000000000000060448201526064016108dd565b600280546001600160a01b0319166001600160a01b0392909216919091179055565b600854600090610e9d90610a2684866129e8565b6000546001600160a01b031633146119c65760405162461bcd60e51b815260206004820181905260248201527f4f776e61626c653a2063616c6c6572206973206e6f7420746865206f776e657260448201526064016108dd565b60008111611a165760405162461bcd60e51b815260206004820152601260248201527f4d696e696d756d20426f6e75732069732031000000000000000000000000000060448201526064016108dd565b6008805490829055604080518281526020810184905233917f15cf56ee6de9a637daba1348018e343afe7ad2850c325caf2243b5da74d6c0f39101611337565b6000818152600a6020908152604080832033845290915281206009805491929184908110611a8657611a866131c4565b906000526020600020906008020190506000600960035481548110611aad57611aad6131c4565b90600052602060002090600802019050611ac684611429565b6000611af48460010154610a8064e8d4a51000610a2c876003015489600001546129c490919063ffffffff16565b9050611b008533610e64565b15611be1576000811180611b18575060008460020154115b15611bdc576000611b368560020154836129dc90919063ffffffff16565b9050611b518560020154600d546129e890919063ffffffff16565b600d55600060028601556005840154611b6b9042906129dc565b600380870191909155546000908152600a60209081526040808320338452909152902054611b9990826129dc565b6003546000908152600a60209081526040808320338452909152902055600e54611bc390826129dc565b600e556006830154611bd590826129dc565b6006840155505b611c43565b8015611c43576002840154611bf690826129dc565b6002850155600d54611c0890826129dc565b600d55604051818152859033907fee470483107f579a55c754fa00613c45a9a3b617a418b39cb0be97e5381ba7c19060200160405180910390a35b60038301548454611c5e9164e8d4a5100091610a2c916129c4565b84600101819055505050505050565b6000546001600160a01b03163314611cc75760405162461bcd60e51b815260206004820181905260248201527f4f776e61626c653a2063616c6c6572206973206e6f7420746865206f776e657260448201526064016108dd565b602a61ffff84161115611d1c5760405162461bcd60e51b815260206004820152601960248201527f6164643a206465706f7369742066656520746f6f20686967680000000000000060448201526064016108dd565b6304fd7d80821115611d705760405162461bcd60e51b815260206004820152601d60248201527f6164643a20696e76616c6964206861727665737420696e74657276616c00000060448201526064016108dd565b8015611d7e57611d7e6116ca565b6000600c544311611d9157600c54611d93565b435b600b54909150611da390876129dc565b600b5560408051610100810182526001600160a01b0396871681526020810197885290810191825260006060820181815261ffff9687166080840190815260a0840196875260c0840183815260e0850184815260098054600181018255955294517f6e1540171b6c0c960b71a7020d9f60077f6af931a8bbf590da0223dacf75c7af600890950294850180546001600160a01b03191691909b161790995598517f6e1540171b6c0c960b71a7020d9f60077f6af931a8bbf590da0223dacf75c7b083015592517f6e1540171b6c0c960b71a7020d9f60077f6af931a8bbf590da0223dacf75c7b182015591517f6e1540171b6c0c960b71a7020d9f60077f6af931a8bbf590da0223dacf75c7b283015595517f6e1540171b6c0c960b71a7020d9f60077f6af931a8bbf590da0223dacf75c7b38201805461ffff1916919095161790935550517f6e1540171b6c0c960b71a7020d9f60077f6af931a8bbf590da0223dacf75c7b482015590517f6e1540171b6c0c960b71a7020d9f60077f6af931a8bbf590da0223dacf75c7b582015590517f6e1540171b6c0c960b71a7020d9f60077f6af931a8bbf590da0223dacf75c7b690910155565b6000546001600160a01b03163314611fb65760405162461bcd60e51b815260206004820181905260248201527f4f776e61626c653a2063616c6c6572206973206e6f7420746865206f776e657260448201526064016108dd565b600c5443106120075760405162461bcd60e51b815260206004820152601b60248201527f4572726f723a3a4661726d207374617274656420616c7265616479000000000060448201526064016108dd565b60095460005b818110156120555760006009828154811061202a5761202a6131c4565b90600052602060002090600802019050438160020181905550508061204e90613209565b905061200d565b505043600c55565b6000546001600160a01b031633146120b75760405162461bcd60e51b815260206004820181905260248201527f4f776e61626c653a2063616c6c6572206973206e6f7420746865206f776e657260448201526064016108dd565b6000600982815481106120cc576120cc6131c4565b90600052602060002090600802016007015490506121193382600985815481106120f8576120f86131c4565b60009182526020909120600890910201546001600160a01b03169190612b8d565b6121508160098481548110612130576121306131c4565b9060005260206000209060080201600701546129e890919063ffffffff16565b60098381548110612163576121636131c4565b9060005260206000209060080201600701819055505050565b6004546001600160a01b03163314806121ae5750336121a36000546001600160a01b031690565b6001600160a01b0316145b6122065760405162461bcd60e51b8152602060048201526024808201527f4f70657261746f723a2063616c6c6572206973206e6f7420746865206f70657260448201526330ba37b960e11b60648201526084016108dd565b8015612214576122146116ca565b61222e82610c5e60098681548110610c3b57610c3b6131c4565b600b819055508160098481548110612248576122486131c4565b906000526020600020906008020160010181905550505050565b6005546001600160a01b031633146122bc5760405162461bcd60e51b815260206004820152601860248201527f736574446576416464726573733a20464f5242494444454e000000000000000060448201526064016108dd565b6001600160a01b0381166123125760405162461bcd60e51b815260206004820152601360248201527f736574446576416464726573733a205a45524f0000000000000000000000000060448201526064016108dd565b600580546001600160a01b0319166001600160a01b0392909216919091179055565b6002600154036123865760405162461bcd60e51b815260206004820152601f60248201527f5265656e7472616e637947756172643a207265656e7472616e742063616c6c0060448201526064016108dd565b6002600155600c544310156124035760405162461bcd60e51b815260206004820152602f60248201527f4d6173746572436865663a3a2043616e206e6f74206465706f7369742062656660448201527f6f7265206661726d2073746172742e000000000000000000000000000000000060648201526084016108dd565b600060098381548110612418576124186131c4565b600091825260209091206008909102018054604051636eb1769f60e11b815233600482015230602482015291925083916001600160a01b039091169063dd62ed3e90604401602060405180830381865afa15801561247a573d6000803e3d6000fd5b505050506040513d601f19601f8201168201806040525081019061249e91906131da565b10156124ec5760405162461bcd60e51b815260206004820152601d60248201527f4c5020746f6b656e20416c6c6f77616e636520697320746f206c6f772e00000060448201526064016108dd565b600481015461ffff1682116125695760405162461bcd60e51b815260206004820152602d60248201527f4465706f736974206e6565647320746f2062652067726561746572207468656e60448201527f206465706f736974206665652e0000000000000000000000000000000000000060648201526084016108dd565b6000838152600a60209081526040808320338452909152902061258b84611429565b61259584336129f4565b81546125ac906001600160a01b0316333086612c3b565b82156127ac5781546040516370a0823160e01b81523060048201526000916001600160a01b0316906370a0823190602401602060405180830381865afa1580156125fa573d6000803e3d6000fd5b505050506040513d601f19601f8201168201806040525081019061261e91906131da565b8354909150612638906001600160a01b0316333087612c3b565b82546040516370a0823160e01b81523060048201526000916001600160a01b0316906370a0823190602401602060405180830381865afa158015612680573d6000803e3d6000fd5b505050506040513d601f19601f820116820180604052508101906126a491906131da565b90506126b081836129e8565b600485015490955061ffff161561275f5760048401546000906126e09061271090610a2c90899061ffff166129c4565b60078601549091506126f290826129dc565b60078601558354612709908290610a8090896129dc565b84556006850154612720908290610a8090896129dc565b600686015560025485546001600160a01b039182169116036127595761275581610a8088600e546129dc90919063ffffffff16565b600e555b506127a9565b825461276b90866129dc565b8355600684015461277c90866129dc565b600685015560025484546001600160a01b039182169116036127a957600e546127a590866129dc565b600e555b50505b600382015481546127c79164e8d4a5100091610a2c916129c4565b6001820155604051838152849033907f90890809c654f11d6e72a28fa60149770a0d11ec6c92319d6ceb2bb0a4ea1a15906020016110f5565b600080546001600160a01b0316331461285b5760405162461bcd60e51b815260206004820181905260248201527f4f776e61626c653a2063616c6c6572206973206e6f7420746865206f776e657260448201526064016108dd565b6009828154811061286e5761286e6131c4565b90600052602060002090600802016007015490505b919050565b6000546001600160a01b031633146128e25760405162461bcd60e51b815260206004820181905260248201527f4f776e61626c653a2063616c6c6572206973206e6f7420746865206f776e657260448201526064016108dd565b6001600160a01b03811661295e5760405162461bcd60e51b815260206004820152602660248201527f4f776e61626c653a206e6577206f776e657220697320746865207a65726f206160448201527f646472657373000000000000000000000000000000000000000000000000000060648201526084016108dd565b61296781612d75565b50565b6000546001600160a01b031633146129675760405162461bcd60e51b815260206004820181905260248201527f4f776e61626c653a2063616c6c6572206973206e6f7420746865206f776e657260448201526064016108dd565b6000610e9d8284613222565b6000610e9d8284613241565b6000610e9d8284613263565b6000610e9d828461327b565b600060098381548110612a0957612a096131c4565b60009182526020808320868452600a825260408085203386529092529220600381015460089092029092019250158015612a455750600c544310155b15612a60576005820154612a5a9042906129dc565b60038201555b6000612a8e8260010154610a8064e8d4a51000610a2c876003015487600001546129c490919063ffffffff16565b9050612a9a8585610e64565b15612b1b576000811180612ab2575060008260020154115b15612b16576000612ad08360020154836129dc90919063ffffffff16565b9050612aeb8360020154600d546129e890919063ffffffff16565b600d55600060028401556005840154612b059042906129dc565b6003840155612b148582612c8c565b505b612b86565b8015612b86576002820154612b3090826129dc565b6002830155600d54612b4290826129dc565b600d5560405181815285906001600160a01b038616907fee470483107f579a55c754fa00613c45a9a3b617a418b39cb0be97e5381ba7c19060200160405180910390a35b5050505050565b6040516001600160a01b038316602482015260448101829052612c369084907fa9059cbb00000000000000000000000000000000000000000000000000000000906064015b60408051601f198184030181529190526020810180517bffffffffffffffffffffffffffffffffffffffffffffffffffffffff167fffffffff0000000000000000000000000000000000000000000000000000000090931692909217909152612dc5565b505050565b6040516001600160a01b03808516602483015283166044820152606481018290526115119085907f23b872dd0000000000000000000000000000000000000000000000000000000090608401612bd2565b600254600e546040516370a0823160e01b81523060048201526001600160a01b039092169182906370a0823190602401602060405180830381865afa158015612cd9573d6000803e3d6000fd5b505050506040513d601f19601f82011682018060405250810190612cfd91906131da565b1115612c3657600e546040516370a0823160e01b8152306004820152600091612d39916001600160a01b038516906370a08231906024016112e5565b9050808310612d5b57612d566001600160a01b0383168583612b8d565b611511565b8215611511576115116001600160a01b0383168585612b8d565b600080546001600160a01b038381166001600160a01b0319831681178455604051919092169283917f8be0079c531659141344cd1fd0a4f28419497f9722a3daafe3b4186f6b6457e09190a35050565b6000612e1a826040518060400160405280602081526020017f5361666545524332303a206c6f772d6c6576656c2063616c6c206661696c6564815250856001600160a01b0316612eaa9092919063ffffffff16565b805190915015612c365780806020019051810190612e389190613292565b612c365760405162461bcd60e51b815260206004820152602a60248201527f5361666545524332303a204552433230206f7065726174696f6e20646964206e60448201527f6f7420737563636565640000000000000000000000000000000000000000000060648201526084016108dd565b6060612eb98484600085612ec1565b949350505050565b606082471015612f395760405162461bcd60e51b815260206004820152602660248201527f416464726573733a20696e73756666696369656e742062616c616e636520666f60448201527f722063616c6c000000000000000000000000000000000000000000000000000060648201526084016108dd565b6001600160a01b0385163b612f905760405162461bcd60e51b815260206004820152601d60248201527f416464726573733a2063616c6c20746f206e6f6e2d636f6e747261637400000060448201526064016108dd565b600080866001600160a01b03168587604051612fac91906132db565b60006040518083038185875af1925050503d8060008114612fe9576040519150601f19603f3d011682016040523d82523d6000602084013e612fee565b606091505b5091509150612ffe828286613009565b979650505050505050565b60608315613018575081610e9d565b8251156130285782518084602001fd5b8160405162461bcd60e51b81526004016108dd91906132f7565b60006020828403121561305457600080fd5b5035919050565b6001600160a01b038116811461296757600080fd5b6000806040838503121561308357600080fd5b8235915060208301356130958161305b565b809150509250929050565b803561ffff8116811461288357600080fd5b801515811461296757600080fd5b600080600080600060a086880312156130d857600080fd5b85359450602086013593506130ef604087016130a0565b9250606086013591506080860135613106816130b2565b809150509295509295909350565b60006020828403121561312657600080fd5b8135610e9d8161305b565b6000806040838503121561314457600080fd5b50508035926020909101359150565b600080600080600060a0868803121561316b57600080fd5b85359450602086013561317d8161305b565b93506130ef604087016130a0565b6000806000606084860312156131a057600080fd5b833592506020840135915060408401356131b9816130b2565b809150509250925092565b634e487b7160e01b600052603260045260246000fd5b6000602082840312156131ec57600080fd5b5051919050565b634e487b7160e01b600052601160045260246000fd5b60006001820161321b5761321b6131f3565b5060010190565b600081600019048311821515161561323c5761323c6131f3565b500290565b60008261325e57634e487b7160e01b600052601260045260246000fd5b500490565b60008219821115613276576132766131f3565b500190565b60008282101561328d5761328d6131f3565b500390565b6000602082840312156132a457600080fd5b8151610e9d816130b2565b60005b838110156132ca5781810151838201526020016132b2565b838111156115115750506000910152565b600082516132ed8184602087016132af565b9190910192915050565b60208152600082518060208401526133168160408501602087016132af565b601f01601f1916919091016040019291505056fea2646970667358221220640d2f7c0d63c7278514df4bc50c150d56c5911f2de9bdc31c8da14e16b8d68564736f6c634300080d0033",
  "devdoc": {
    "kind": "dev",
    "methods": {
      "owner()": {
        "details": "Returns the address of the current owner."
      },
      "renounceOwnership()": {
        "details": "Leaves the contract without owner. It will not be possible to call `onlyOwner` functions anymore. Can only be called by the current owner. NOTE: Renouncing ownership will leave the contract without an owner, thereby removing any functionality that is only available to the owner."
      },
      "transferOwnership(address)": {
        "details": "Transfers ownership of the contract to a new account (`newOwner`). Can only be called by the current owner."
      }
    },
    "version": 1
  },
  "userdoc": {
    "kind": "user",
    "methods": {},
    "version": 1
  },
  "storageLayout": {
    "storage": [
      {
        "astId": 7,
        "contract": "contracts/PogoChef.sol:MasterChefV2",
        "label": "_owner",
        "offset": 0,
        "slot": "0",
        "type": "t_address"
      },
      {
        "astId": 285,
        "contract": "contracts/PogoChef.sol:MasterChefV2",
        "label": "_status",
        "offset": 0,
        "slot": "1",
        "type": "t_uint256"
      },
      {
        "astId": 4581,
        "contract": "contracts/PogoChef.sol:MasterChefV2",
        "label": "pogo",
        "offset": 0,
        "slot": "2",
        "type": "t_address"
      },
      {
        "astId": 4584,
        "contract": "contracts/PogoChef.sol:MasterChefV2",
        "label": "pogoId",
        "offset": 0,
        "slot": "3",
        "type": "t_uint256"
      },
      {
        "astId": 4586,
        "contract": "contracts/PogoChef.sol:MasterChefV2",
        "label": "_operator",
        "offset": 0,
        "slot": "4",
        "type": "t_address"
      },
      {
        "astId": 4589,
        "contract": "contracts/PogoChef.sol:MasterChefV2",
        "label": "devAddress",
        "offset": 0,
        "slot": "5",
        "type": "t_address"
      },
      {
        "astId": 4596,
        "contract": "contracts/PogoChef.sol:MasterChefV2",
        "label": "pogoPerBlock",
        "offset": 0,
        "slot": "6",
        "type": "t_uint256"
      },
      {
        "astId": 4603,
        "contract": "contracts/PogoChef.sol:MasterChefV2",
        "label": "MAX_POGO_PER_BLOCK",
        "offset": 0,
        "slot": "7",
        "type": "t_uint256"
      },
      {
        "astId": 4606,
        "contract": "contracts/PogoChef.sol:MasterChefV2",
        "label": "BONUS_MULTIPLIER",
        "offset": 0,
        "slot": "8",
        "type": "t_uint256"
      },
      {
        "astId": 4613,
        "contract": "contracts/PogoChef.sol:MasterChefV2",
        "label": "poolInfo",
        "offset": 0,
        "slot": "9",
        "type": "t_array(t_struct(PoolInfo)4578_storage)dyn_storage"
      },
      {
        "astId": 4620,
        "contract": "contracts/PogoChef.sol:MasterChefV2",
        "label": "userInfo",
        "offset": 0,
        "slot": "10",
        "type": "t_mapping(t_uint256,t_mapping(t_address,t_struct(UserInfo)4560_storage))"
      },
      {
        "astId": 4623,
        "contract": "contracts/PogoChef.sol:MasterChefV2",
        "label": "totalAllocPoint",
        "offset": 0,
        "slot": "11",
        "type": "t_uint256"
      },
      {
        "astId": 4626,
        "contract": "contracts/PogoChef.sol:MasterChefV2",
        "label": "startBlock",
        "offset": 0,
        "slot": "12",
        "type": "t_uint256"
      },
      {
        "astId": 4628,
        "contract": "contracts/PogoChef.sol:MasterChefV2",
        "label": "totalLockedUpRewards",
        "offset": 0,
        "slot": "13",
        "type": "t_uint256"
      },
      {
        "astId": 4630,
        "contract": "contracts/PogoChef.sol:MasterChefV2",
        "label": "totalPogoInPools",
        "offset": 0,
        "slot": "14",
        "type": "t_uint256"
      }
    ],
    "types": {
      "t_address": {
        "encoding": "inplace",
        "label": "address",
        "numberOfBytes": "20"
      },
      "t_array(t_struct(PoolInfo)4578_storage)dyn_storage": {
        "base": "t_struct(PoolInfo)4578_storage",
        "encoding": "dynamic_array",
        "label": "struct MasterChefV2.PoolInfo[]",
        "numberOfBytes": "32"
      },
      "t_contract(IERC20)978": {
        "encoding": "inplace",
        "label": "contract IERC20",
        "numberOfBytes": "20"
      },
      "t_mapping(t_address,t_struct(UserInfo)4560_storage)": {
        "encoding": "mapping",
        "key": "t_address",
        "label": "mapping(address => struct MasterChefV2.UserInfo)",
        "numberOfBytes": "32",
        "value": "t_struct(UserInfo)4560_storage"
      },
      "t_mapping(t_uint256,t_mapping(t_address,t_struct(UserInfo)4560_storage))": {
        "encoding": "mapping",
        "key": "t_uint256",
        "label": "mapping(uint256 => mapping(address => struct MasterChefV2.UserInfo))",
        "numberOfBytes": "32",
        "value": "t_mapping(t_address,t_struct(UserInfo)4560_storage)"
      },
      "t_struct(PoolInfo)4578_storage": {
        "encoding": "inplace",
        "label": "struct MasterChefV2.PoolInfo",
        "members": [
          {
            "astId": 4563,
            "contract": "contracts/PogoChef.sol:MasterChefV2",
            "label": "lpToken",
            "offset": 0,
            "slot": "0",
            "type": "t_contract(IERC20)978"
          },
          {
            "astId": 4565,
            "contract": "contracts/PogoChef.sol:MasterChefV2",
            "label": "allocPoint",
            "offset": 0,
            "slot": "1",
            "type": "t_uint256"
          },
          {
            "astId": 4567,
            "contract": "contracts/PogoChef.sol:MasterChefV2",
            "label": "lastRewardBlock",
            "offset": 0,
            "slot": "2",
            "type": "t_uint256"
          },
          {
            "astId": 4569,
            "contract": "contracts/PogoChef.sol:MasterChefV2",
            "label": "accPogoPerShare",
            "offset": 0,
            "slot": "3",
            "type": "t_uint256"
          },
          {
            "astId": 4571,
            "contract": "contracts/PogoChef.sol:MasterChefV2",
            "label": "depositFeeBP",
            "offset": 0,
            "slot": "4",
            "type": "t_uint16"
          },
          {
            "astId": 4573,
            "contract": "contracts/PogoChef.sol:MasterChefV2",
            "label": "harvestInterval",
            "offset": 0,
            "slot": "5",
            "type": "t_uint256"
          },
          {
            "astId": 4575,
            "contract": "contracts/PogoChef.sol:MasterChefV2",
            "label": "totalLp",
            "offset": 0,
            "slot": "6",
            "type": "t_uint256"
          },
          {
            "astId": 4577,
            "contract": "contracts/PogoChef.sol:MasterChefV2",
            "label": "depositFees",
            "offset": 0,
            "slot": "7",
            "type": "t_uint256"
          }
        ],
        "numberOfBytes": "256"
      },
      "t_struct(UserInfo)4560_storage": {
        "encoding": "inplace",
        "label": "struct MasterChefV2.UserInfo",
        "members": [
          {
            "astId": 4553,
            "contract": "contracts/PogoChef.sol:MasterChefV2",
            "label": "amount",
            "offset": 0,
            "slot": "0",
            "type": "t_uint256"
          },
          {
            "astId": 4555,
            "contract": "contracts/PogoChef.sol:MasterChefV2",
            "label": "rewardDebt",
            "offset": 0,
            "slot": "1",
            "type": "t_uint256"
          },
          {
            "astId": 4557,
            "contract": "contracts/PogoChef.sol:MasterChefV2",
            "label": "rewardLockedUp",
            "offset": 0,
            "slot": "2",
            "type": "t_uint256"
          },
          {
            "astId": 4559,
            "contract": "contracts/PogoChef.sol:MasterChefV2",
            "label": "nextHarvestUntil",
            "offset": 0,
            "slot": "3",
            "type": "t_uint256"
          }
        ],
        "numberOfBytes": "128"
      },
      "t_uint16": {
        "encoding": "inplace",
        "label": "uint16",
        "numberOfBytes": "2"
      },
      "t_uint256": {
        "encoding": "inplace",
        "label": "uint256",
        "numberOfBytes": "32"
      }
    }
  }
}