{
  "address": "0x26565B07a123eE674a75fA182D51822ce8175E4c",
  "abi": [
    {
      "inputs": [],
      "stateMutability": "nonpayable",
      "type": "constructor"
    },
    {
      "anonymous": false,
      "inputs": [
        {
          "indexed": true,
          "internalType": "address",
          "name": "owner",
          "type": "address"
        },
        {
          "indexed": true,
          "internalType": "address",
          "name": "spender",
          "type": "address"
        },
        {
          "indexed": false,
          "internalType": "uint256",
          "name": "value",
          "type": "uint256"
        }
      ],
      "name": "Approval",
      "type": "event"
    },
    {
      "anonymous": false,
      "inputs": [
        {
          "indexed": true,
          "internalType": "address",
          "name": "delegator",
          "type": "address"
        },
        {
          "indexed": true,
          "internalType": "address",
          "name": "fromDelegate",
          "type": "address"
        },
        {
          "indexed": true,
          "internalType": "address",
          "name": "toDelegate",
          "type": "address"
        }
      ],
      "name": "DelegateChanged",
      "type": "event"
    },
    {
      "anonymous": false,
      "inputs": [
        {
          "indexed": true,
          "internalType": "address",
          "name": "delegate",
          "type": "address"
        },
        {
          "indexed": false,
          "internalType": "uint256",
          "name": "previousBalance",
          "type": "uint256"
        },
        {
          "indexed": false,
          "internalType": "uint256",
          "name": "newBalance",
          "type": "uint256"
        }
      ],
      "name": "DelegateVotesChanged",
      "type": "event"
    },
    {
      "anonymous": false,
      "inputs": [
        {
          "indexed": true,
          "internalType": "address",
          "name": "previousOwner",
          "type": "address"
        },
        {
          "indexed": true,
          "internalType": "address",
          "name": "newOwner",
          "type": "address"
        }
      ],
      "name": "OwnershipTransferred",
      "type": "event"
    },
    {
      "anonymous": false,
      "inputs": [
        {
          "indexed": false,
          "internalType": "address",
          "name": "account",
          "type": "address"
        }
      ],
      "name": "Paused",
      "type": "event"
    },
    {
      "anonymous": false,
      "inputs": [
        {
          "indexed": true,
          "internalType": "address",
          "name": "from",
          "type": "address"
        },
        {
          "indexed": true,
          "internalType": "address",
          "name": "to",
          "type": "address"
        },
        {
          "indexed": false,
          "internalType": "uint256",
          "name": "value",
          "type": "uint256"
        }
      ],
      "name": "Transfer",
      "type": "event"
    },
    {
      "anonymous": false,
      "inputs": [
        {
          "indexed": false,
          "internalType": "address",
          "name": "account",
          "type": "address"
        }
      ],
      "name": "Unpaused",
      "type": "event"
    },
    {
      "inputs": [],
      "name": "DOMAIN_SEPARATOR",
      "outputs": [
        {
          "internalType": "bytes32",
          "name": "",
          "type": "bytes32"
        }
      ],
      "stateMutability": "view",
      "type": "function"
    },
    {
      "inputs": [],
      "name": "_fundOrBurnFee",
      "outputs": [
        {
          "internalType": "uint256",
          "name": "",
          "type": "uint256"
        }
      ],
      "stateMutability": "view",
      "type": "function"
    },
    {
      "inputs": [],
      "name": "_maxTxAmount",
      "outputs": [
        {
          "internalType": "uint256",
          "name": "",
          "type": "uint256"
        }
      ],
      "stateMutability": "view",
      "type": "function"
    },
    {
      "inputs": [],
      "name": "_maxTxPercent",
      "outputs": [
        {
          "internalType": "uint256",
          "name": "",
          "type": "uint256"
        }
      ],
      "stateMutability": "view",
      "type": "function"
    },
    {
      "inputs": [],
      "name": "_maxWalletAmount",
      "outputs": [
        {
          "internalType": "uint256",
          "name": "",
          "type": "uint256"
        }
      ],
      "stateMutability": "view",
      "type": "function"
    },
    {
      "inputs": [],
      "name": "_maxWalletDecimal",
      "outputs": [
        {
          "internalType": "uint256",
          "name": "",
          "type": "uint256"
        }
      ],
      "stateMutability": "view",
      "type": "function"
    },
    {
      "inputs": [],
      "name": "_maxWalletPercent",
      "outputs": [
        {
          "internalType": "uint256",
          "name": "",
          "type": "uint256"
        }
      ],
      "stateMutability": "view",
      "type": "function"
    },
    {
      "inputs": [],
      "name": "_taxFee",
      "outputs": [
        {
          "internalType": "uint256",
          "name": "",
          "type": "uint256"
        }
      ],
      "stateMutability": "view",
      "type": "function"
    },
    {
      "inputs": [
        {
          "internalType": "address",
          "name": "owner",
          "type": "address"
        },
        {
          "internalType": "address",
          "name": "spender",
          "type": "address"
        }
      ],
      "name": "allowance",
      "outputs": [
        {
          "internalType": "uint256",
          "name": "",
          "type": "uint256"
        }
      ],
      "stateMutability": "view",
      "type": "function"
    },
    {
      "inputs": [
        {
          "internalType": "address",
          "name": "spender",
          "type": "address"
        },
        {
          "internalType": "uint256",
          "name": "amount",
          "type": "uint256"
        }
      ],
      "name": "approve",
      "outputs": [
        {
          "internalType": "bool",
          "name": "",
          "type": "bool"
        }
      ],
      "stateMutability": "nonpayable",
      "type": "function"
    },
    {
      "inputs": [
        {
          "internalType": "address",
          "name": "account",
          "type": "address"
        }
      ],
      "name": "balanceOf",
      "outputs": [
        {
          "internalType": "uint256",
          "name": "",
          "type": "uint256"
        }
      ],
      "stateMutability": "view",
      "type": "function"
    },
    {
      "inputs": [
        {
          "internalType": "address",
          "name": "account",
          "type": "address"
        }
      ],
      "name": "blacklistAddress",
      "outputs": [],
      "stateMutability": "nonpayable",
      "type": "function"
    },
    {
      "inputs": [
        {
          "internalType": "uint256",
          "name": "amount",
          "type": "uint256"
        }
      ],
      "name": "burn",
      "outputs": [],
      "stateMutability": "nonpayable",
      "type": "function"
    },
    {
      "inputs": [
        {
          "internalType": "address",
          "name": "account",
          "type": "address"
        },
        {
          "internalType": "uint256",
          "name": "amount",
          "type": "uint256"
        }
      ],
      "name": "burnFrom",
      "outputs": [],
      "stateMutability": "nonpayable",
      "type": "function"
    },
    {
      "inputs": [
        {
          "internalType": "address",
          "name": "account",
          "type": "address"
        },
        {
          "internalType": "uint32",
          "name": "pos",
          "type": "uint32"
        }
      ],
      "name": "checkpoints",
      "outputs": [
        {
          "components": [
            {
              "internalType": "uint32",
              "name": "fromBlock",
              "type": "uint32"
            },
            {
              "internalType": "uint224",
              "name": "votes",
              "type": "uint224"
            }
          ],
          "internalType": "struct ERC20Votes.Checkpoint",
          "name": "",
          "type": "tuple"
        }
      ],
      "stateMutability": "view",
      "type": "function"
    },
    {
      "inputs": [],
      "name": "decimals",
      "outputs": [
        {
          "internalType": "uint8",
          "name": "",
          "type": "uint8"
        }
      ],
      "stateMutability": "view",
      "type": "function"
    },
    {
      "inputs": [
        {
          "internalType": "address",
          "name": "spender",
          "type": "address"
        },
        {
          "internalType": "uint256",
          "name": "subtractedValue",
          "type": "uint256"
        }
      ],
      "name": "decreaseAllowance",
      "outputs": [
        {
          "internalType": "bool",
          "name": "",
          "type": "bool"
        }
      ],
      "stateMutability": "nonpayable",
      "type": "function"
    },
    {
      "inputs": [
        {
          "internalType": "address",
          "name": "delegatee",
          "type": "address"
        }
      ],
      "name": "delegate",
      "outputs": [],
      "stateMutability": "nonpayable",
      "type": "function"
    },
    {
      "inputs": [
        {
          "internalType": "address",
          "name": "delegatee",
          "type": "address"
        },
        {
          "internalType": "uint256",
          "name": "nonce",
          "type": "uint256"
        },
        {
          "internalType": "uint256",
          "name": "expiry",
          "type": "uint256"
        },
        {
          "internalType": "uint8",
          "name": "v",
          "type": "uint8"
        },
        {
          "internalType": "bytes32",
          "name": "r",
          "type": "bytes32"
        },
        {
          "internalType": "bytes32",
          "name": "s",
          "type": "bytes32"
        }
      ],
      "name": "delegateBySig",
      "outputs": [],
      "stateMutability": "nonpayable",
      "type": "function"
    },
    {
      "inputs": [
        {
          "internalType": "address",
          "name": "account",
          "type": "address"
        }
      ],
      "name": "delegates",
      "outputs": [
        {
          "internalType": "address",
          "name": "",
          "type": "address"
        }
      ],
      "stateMutability": "view",
      "type": "function"
    },
    {
      "inputs": [
        {
          "internalType": "uint256",
          "name": "tAmount",
          "type": "uint256"
        }
      ],
      "name": "deliver",
      "outputs": [],
      "stateMutability": "nonpayable",
      "type": "function"
    },
    {
      "inputs": [
        {
          "internalType": "address",
          "name": "account",
          "type": "address"
        }
      ],
      "name": "excludeFromFee",
      "outputs": [],
      "stateMutability": "nonpayable",
      "type": "function"
    },
    {
      "inputs": [
        {
          "internalType": "address",
          "name": "account",
          "type": "address"
        }
      ],
      "name": "excludeFromReward",
      "outputs": [],
      "stateMutability": "nonpayable",
      "type": "function"
    },
    {
      "inputs": [
        {
          "internalType": "uint256",
          "name": "blockNumber",
          "type": "uint256"
        }
      ],
      "name": "getPastTotalSupply",
      "outputs": [
        {
          "internalType": "uint256",
          "name": "",
          "type": "uint256"
        }
      ],
      "stateMutability": "view",
      "type": "function"
    },
    {
      "inputs": [
        {
          "internalType": "address",
          "name": "account",
          "type": "address"
        },
        {
          "internalType": "uint256",
          "name": "blockNumber",
          "type": "uint256"
        }
      ],
      "name": "getPastVotes",
      "outputs": [
        {
          "internalType": "uint256",
          "name": "",
          "type": "uint256"
        }
      ],
      "stateMutability": "view",
      "type": "function"
    },
    {
      "inputs": [
        {
          "internalType": "address",
          "name": "account",
          "type": "address"
        }
      ],
      "name": "getVotes",
      "outputs": [
        {
          "internalType": "uint256",
          "name": "",
          "type": "uint256"
        }
      ],
      "stateMutability": "view",
      "type": "function"
    },
    {
      "inputs": [
        {
          "internalType": "address",
          "name": "account",
          "type": "address"
        }
      ],
      "name": "includeInFee",
      "outputs": [],
      "stateMutability": "nonpayable",
      "type": "function"
    },
    {
      "inputs": [
        {
          "internalType": "address",
          "name": "account",
          "type": "address"
        }
      ],
      "name": "includeInReward",
      "outputs": [],
      "stateMutability": "nonpayable",
      "type": "function"
    },
    {
      "inputs": [
        {
          "internalType": "address",
          "name": "spender",
          "type": "address"
        },
        {
          "internalType": "uint256",
          "name": "addedValue",
          "type": "uint256"
        }
      ],
      "name": "increaseAllowance",
      "outputs": [
        {
          "internalType": "bool",
          "name": "",
          "type": "bool"
        }
      ],
      "stateMutability": "nonpayable",
      "type": "function"
    },
    {
      "inputs": [
        {
          "internalType": "address",
          "name": "account",
          "type": "address"
        }
      ],
      "name": "isExcludedFromFee",
      "outputs": [
        {
          "internalType": "bool",
          "name": "",
          "type": "bool"
        }
      ],
      "stateMutability": "view",
      "type": "function"
    },
    {
      "inputs": [
        {
          "internalType": "address",
          "name": "account",
          "type": "address"
        }
      ],
      "name": "isExcludedFromReward",
      "outputs": [
        {
          "internalType": "bool",
          "name": "",
          "type": "bool"
        }
      ],
      "stateMutability": "view",
      "type": "function"
    },
    {
      "inputs": [],
      "name": "name",
      "outputs": [
        {
          "internalType": "string",
          "name": "",
          "type": "string"
        }
      ],
      "stateMutability": "view",
      "type": "function"
    },
    {
      "inputs": [
        {
          "internalType": "address",
          "name": "owner",
          "type": "address"
        }
      ],
      "name": "nonces",
      "outputs": [
        {
          "internalType": "uint256",
          "name": "",
          "type": "uint256"
        }
      ],
      "stateMutability": "view",
      "type": "function"
    },
    {
      "inputs": [
        {
          "internalType": "address",
          "name": "account",
          "type": "address"
        }
      ],
      "name": "numCheckpoints",
      "outputs": [
        {
          "internalType": "uint32",
          "name": "",
          "type": "uint32"
        }
      ],
      "stateMutability": "view",
      "type": "function"
    },
    {
      "inputs": [],
      "name": "owner",
      "outputs": [
        {
          "internalType": "address",
          "name": "",
          "type": "address"
        }
      ],
      "stateMutability": "view",
      "type": "function"
    },
    {
      "inputs": [],
      "name": "pause",
      "outputs": [],
      "stateMutability": "nonpayable",
      "type": "function"
    },
    {
      "inputs": [],
      "name": "paused",
      "outputs": [
        {
          "internalType": "bool",
          "name": "",
          "type": "bool"
        }
      ],
      "stateMutability": "view",
      "type": "function"
    },
    {
      "inputs": [
        {
          "internalType": "address",
          "name": "owner",
          "type": "address"
        },
        {
          "internalType": "address",
          "name": "spender",
          "type": "address"
        },
        {
          "internalType": "uint256",
          "name": "value",
          "type": "uint256"
        },
        {
          "internalType": "uint256",
          "name": "deadline",
          "type": "uint256"
        },
        {
          "internalType": "uint8",
          "name": "v",
          "type": "uint8"
        },
        {
          "internalType": "bytes32",
          "name": "r",
          "type": "bytes32"
        },
        {
          "internalType": "bytes32",
          "name": "s",
          "type": "bytes32"
        }
      ],
      "name": "permit",
      "outputs": [],
      "stateMutability": "nonpayable",
      "type": "function"
    },
    {
      "inputs": [
        {
          "internalType": "uint256",
          "name": "tAmount",
          "type": "uint256"
        },
        {
          "internalType": "bool",
          "name": "deductTransferFee",
          "type": "bool"
        }
      ],
      "name": "reflectionFromToken",
      "outputs": [
        {
          "internalType": "uint256",
          "name": "",
          "type": "uint256"
        }
      ],
      "stateMutability": "view",
      "type": "function"
    },
    {
      "inputs": [],
      "name": "renounceOwnership",
      "outputs": [],
      "stateMutability": "nonpayable",
      "type": "function"
    },
    {
      "inputs": [
        {
          "internalType": "uint256",
          "name": "fundorBurnFee",
          "type": "uint256"
        }
      ],
      "name": "setFundOrBurnFeePercent",
      "outputs": [],
      "stateMutability": "nonpayable",
      "type": "function"
    },
    {
      "inputs": [
        {
          "internalType": "uint256",
          "name": "maxTxPercent",
          "type": "uint256"
        }
      ],
      "name": "setMaxTxPercent",
      "outputs": [],
      "stateMutability": "nonpayable",
      "type": "function"
    },
    {
      "inputs": [
        {
          "internalType": "uint256",
          "name": "maxWalletPercent",
          "type": "uint256"
        },
        {
          "internalType": "uint256",
          "name": "maxWalletDecimal",
          "type": "uint256"
        }
      ],
      "name": "setMaxWalletPercent",
      "outputs": [],
      "stateMutability": "nonpayable",
      "type": "function"
    },
    {
      "inputs": [
        {
          "internalType": "uint256",
          "name": "taxFee",
          "type": "uint256"
        }
      ],
      "name": "setTaxFeePercent",
      "outputs": [],
      "stateMutability": "nonpayable",
      "type": "function"
    },
    {
      "inputs": [],
      "name": "symbol",
      "outputs": [
        {
          "internalType": "string",
          "name": "",
          "type": "string"
        }
      ],
      "stateMutability": "view",
      "type": "function"
    },
    {
      "inputs": [
        {
          "internalType": "uint256",
          "name": "rAmount",
          "type": "uint256"
        }
      ],
      "name": "tokenFromReflection",
      "outputs": [
        {
          "internalType": "uint256",
          "name": "",
          "type": "uint256"
        }
      ],
      "stateMutability": "view",
      "type": "function"
    },
    {
      "inputs": [],
      "name": "totalFees",
      "outputs": [
        {
          "internalType": "uint256",
          "name": "",
          "type": "uint256"
        }
      ],
      "stateMutability": "view",
      "type": "function"
    },
    {
      "inputs": [],
      "name": "totalSupply",
      "outputs": [
        {
          "internalType": "uint256",
          "name": "",
          "type": "uint256"
        }
      ],
      "stateMutability": "view",
      "type": "function"
    },
    {
      "inputs": [
        {
          "internalType": "address",
          "name": "recipient",
          "type": "address"
        },
        {
          "internalType": "uint256",
          "name": "amount",
          "type": "uint256"
        }
      ],
      "name": "transfer",
      "outputs": [
        {
          "internalType": "bool",
          "name": "",
          "type": "bool"
        }
      ],
      "stateMutability": "nonpayable",
      "type": "function"
    },
    {
      "inputs": [
        {
          "internalType": "address",
          "name": "sender",
          "type": "address"
        },
        {
          "internalType": "address",
          "name": "recipient",
          "type": "address"
        },
        {
          "internalType": "uint256",
          "name": "amount",
          "type": "uint256"
        }
      ],
      "name": "transferFrom",
      "outputs": [
        {
          "internalType": "bool",
          "name": "",
          "type": "bool"
        }
      ],
      "stateMutability": "nonpayable",
      "type": "function"
    },
    {
      "inputs": [
        {
          "internalType": "address",
          "name": "newOwner",
          "type": "address"
        }
      ],
      "name": "transferOwnership",
      "outputs": [],
      "stateMutability": "nonpayable",
      "type": "function"
    },
    {
      "inputs": [],
      "name": "unpause",
      "outputs": [],
      "stateMutability": "nonpayable",
      "type": "function"
    },
    {
      "inputs": [
        {
          "internalType": "address",
          "name": "account",
          "type": "address"
        }
      ],
      "name": "whitelistAddress",
      "outputs": [],
      "stateMutability": "nonpayable",
      "type": "function"
    }
  ],
  "transactionHash": "0xa1972142fa0abb5087c2b5a173c70ceeaa5c40a16f671482ec45b3dfb516641b",
  "args": [],
  "solcInputHash": "4085517755b50cade88bdfbc9f70606f",
  "bytecode": "0x610140604052601280546001600160a01b031990811673483c60c602a6606ca0a3a14be921eee0175deb6d179091556013805490911661dead1790556a108b2a2c2802909400000060148190556200005a9060001962000460565b62000068906000196200048d565b60155560016017556017546018556001601955601954601a55600a601b55600a601c556012601d556001601b54601454620000a49190620004a7565b620000b09190620004c9565b620000bd906001620004a7565b601e55601d54620000d0906001620004e0565b620000dd906001620005fa565b601c54601454620000ef9190620004a7565b620000fb9190620004c9565b601f553480156200010b57600080fd5b50604051806040016040528060098152602001682837b3b7aa37b5b2b760b91b81525080604051806040016040528060018152602001603160f81b815250604051806040016040528060098152602001682837b3b7aa37b5b2b760b91b81525060405180604001604052806004815260200163504f474f60e01b8152508160039080519060200190620001a0929190620003a4565b508051620001b6906004906020840190620003a4565b50506005805460ff1916905550620001ce336200034a565b815160208084019190912082518383012060e08290526101008190524660a0818152604080517f8b73c3c69bb8fe3d512ecc4cf759cc79239f7b179b0ffacaa9a75d522b39400f81880181905281830187905260608201869052608082019490945230818401528151808203909301835260c00190528051940193909320919290916080523060c052610120525050601554336000908152600b602052604081209190915560019350600f925090506200029560055461010090046001600160a01b031690565b6001600160a01b03908116825260208083019390935260409182016000908120805495151560ff19968716179055308152600f909352818320805485166001908117909155601254909116835291208054909216179055620002f43390565b6001600160a01b031660006001600160a01b03167fddf252ad1be2c89b69c2b068fc378daa952ba7f163c4a11628f55a4df523b3ef6014546040516200033c91815260200190565b60405180910390a36200064b565b600580546001600160a01b03838116610100818102610100600160a81b031985161790945560405193909204169182907f8be0079c531659141344cd1fd0a4f28419497f9722a3daafe3b4186f6b6457e090600090a35050565b828054620003b2906200060f565b90600052602060002090601f016020900481019282620003d6576000855562000421565b82601f10620003f157805160ff191683800117855562000421565b8280016001018555821562000421579182015b828111156200042157825182559160200191906001019062000404565b506200042f92915062000433565b5090565b5b808211156200042f576000815560010162000434565b634e487b7160e01b600052601260045260246000fd5b6000826200047257620004726200044a565b500690565b634e487b7160e01b600052601160045260246000fd5b600082821015620004a257620004a262000477565b500390565b6000816000190483118215151615620004c457620004c462000477565b500290565b600082620004db57620004db6200044a565b500490565b60008219821115620004f657620004f662000477565b500190565b600181815b808511156200053c57816000190482111562000520576200052062000477565b808516156200052e57918102915b93841c939080029062000500565b509250929050565b6000826200055557506001620005f4565b816200056457506000620005f4565b81600181146200057d57600281146200058857620005a8565b6001915050620005f4565b60ff8411156200059c576200059c62000477565b50506001821b620005f4565b5060208310610133831016604e8410600b8410161715620005cd575081810a620005f4565b620005d98383620004fb565b8060001904821115620005f057620005f062000477565b0290505b92915050565b600062000608838362000544565b9392505050565b600181811c908216806200062457607f821691505b6020821081036200064557634e487b7160e01b600052602260045260246000fd5b50919050565b60805160a05160c05160e0516101005161012051613b036200069b6000396000611fc10152600061201001526000611feb01526000611f4401526000611f6e01526000611f980152613b036000f3fe608060405234801561001057600080fd5b50600436106103575760003560e01c80636c0a24eb116101c8578063a457c2d711610104578063e6a6523f116100a2578063f2fde38b1161007c578063f2fde38b14610766578063f3290d7514610779578063f5eb2a4d1461078c578063fb32bac61461079557600080fd5b8063e6a6523f14610703578063ea2f0b3714610716578063f1127ed81461072957600080fd5b8063c3cda520116100de578063c3cda52014610691578063d505accf146106a4578063d543dbeb146106b7578063dd62ed3e146106ca57600080fd5b8063a457c2d714610662578063a5b3f21d14610675578063a9059cbb1461067e57600080fd5b80637ecebe00116101715780638da5cb5b1161014b5780638da5cb5b1461061e5780638e539e8c1461063457806395d89b41146106475780639ab24eb01461064f57600080fd5b80637ecebe00146105d75780638456cb59146105ea57806388f82020146105f257600080fd5b8063715018a6116101a2578063715018a6146105b357806379cc6790146105bb5780637d1db4a5146105ce57600080fd5b80636c0a24eb1461056f5780636fcfff451461057857806370a08231146105a057600080fd5b80633bd5d1731161029757806352390c02116102405780635c19a95c1161021a5780635c19a95c146105355780635c975abb146105485780636359f193146105535780636b678ea01461056657600080fd5b806352390c02146104b25780635342acb4146104c5578063587cde1e146104f157600080fd5b806342966c681161027157806342966c6814610479578063437823ec1461048c5780634549b0391461049f57600080fd5b80633bd5d1731461044b5780633f4ba83a1461045e578063415665851461046657600080fd5b80632d838119116103045780633685d419116102de5780633685d41914610409578063395093511461041c5780633a46b1a81461042f5780633b124fe71461044257600080fd5b80632d838119146103df578063313ce567146103f25780633644e5151461040157600080fd5b806313114a9d1161033557806313114a9d146103b257806318160ddd146103c457806323b872dd146103cc57600080fd5b8063061c82d01461035c57806306fdde0314610371578063095ea7b31461038f575b600080fd5b61036f61036a3660046135be565b61079e565b005b6103796107f6565b60405161038691906135d7565b60405180910390f35b6103a261039d366004613648565b610888565b6040519015158152602001610386565b6016545b604051908152602001610386565b6014546103b6565b6103a26103da366004613672565b61089f565b6103b66103ed3660046135be565b610908565b60405160128152602001610386565b6103b661099f565b61036f6104173660046136ae565b6109ae565b6103a261042a366004613648565b610ba2565b6103b661043d366004613648565b610bd8565b6103b660175481565b61036f6104593660046135be565b610c4b565b61036f610d46565b61036f6104743660046136ae565b610d9e565b61036f6104873660046135be565b610e0d565b61036f61049a3660046136ae565b610e1a565b6103b66104ad3660046136c9565b610e8c565b61036f6104c03660046136ae565b610f19565b6103a26104d33660046136ae565b6001600160a01b03166000908152600f602052604090205460ff1690565b61051d6104ff3660046136ae565b6001600160a01b039081166000908152600860205260409020541690565b6040516001600160a01b039091168152602001610386565b61036f6105433660046136ae565b61109d565b60055460ff166103a2565b61036f6105613660046136fe565b6110a7565b6103b6601c5481565b6103b6601f5481565b61058b6105863660046136ae565b611134565b60405163ffffffff9091168152602001610386565b6103b66105ae3660046136ae565b611156565b61036f6111b5565b61036f6105c9366004613648565b61120d565b6103b6601e5481565b6103b66105e53660046136ae565b611222565b61036f611240565b6103a26106003660046136ae565b6001600160a01b031660009081526010602052604090205460ff1690565b60055461010090046001600160a01b031661051d565b6103b66106423660046135be565b611296565b6103796112f2565b6103b661065d3660046136ae565b611301565b6103a2610670366004613648565b611388565b6103b660195481565b6103a261068c366004613648565b6113d7565b61036f61069f366004613731565b6113e4565b61036f6106b2366004613789565b61151a565b61036f6106c53660046135be565b61167e565b6103b66106d83660046137f3565b6001600160a01b039182166000908152600d6020908152604080832093909416825291909152205490565b61036f6107113660046135be565b6116eb565b61036f6107243660046136ae565b61173e565b61073c610737366004613826565b6117ad565b60408051825163ffffffff1681526020928301516001600160e01b03169281019290925201610386565b61036f6107743660046136ae565b611831565b61036f6107873660046136ae565b611904565b6103b6601b5481565b6103b6601d5481565b6005546001600160a01b036101009091041633146107f15760405162461bcd60e51b81526020600482018190526024820152600080516020613a8983398151915260448201526064015b60405180910390fd5b601755565b6060600380546108059061385b565b80601f01602080910402602001604051908101604052809291908181526020018280546108319061385b565b801561087e5780601f106108535761010080835404028352916020019161087e565b820191906000526020600020905b81548152906001019060200180831161086157829003601f168201915b5050505050905090565b6000610895338484611976565b5060015b92915050565b60006108ac848484611ace565b6108fe84336108f985604051806060016040528060288152602001613a61602891396001600160a01b038a166000908152600d602090815260408083203384529091529020549190611edc565b611976565b5060019392505050565b60006015548211156109825760405162461bcd60e51b815260206004820152602a60248201527f416d6f756e74206d757374206265206c657373207468616e20746f74616c207260448201527f65666c656374696f6e730000000000000000000000000000000000000000000060648201526084016107e8565b600061098c611f08565b90506109988382611f2b565b9392505050565b60006109a9611f37565b905090565b6005546001600160a01b036101009091041633146109fc5760405162461bcd60e51b81526020600482018190526024820152600080516020613a8983398151915260448201526064016107e8565b6001600160a01b03811660009081526010602052604090205460ff16610a645760405162461bcd60e51b815260206004820152601b60248201527f4163636f756e7420697320616c726561647920696e636c75646564000000000060448201526064016107e8565b60005b601154811015610b9e57816001600160a01b031660118281548110610a8e57610a8e61388f565b6000918252602090912001546001600160a01b031603610b8c5760118054610ab8906001906138bb565b81548110610ac857610ac861388f565b600091825260209091200154601180546001600160a01b039092169183908110610af457610af461388f565b6000918252602080832091909101805473ffffffffffffffffffffffffffffffffffffffff19166001600160a01b039485161790559184168152600c82526040808220829055601090925220805460ff191690556011805480610b5957610b596138d2565b6000828152602090208101600019908101805473ffffffffffffffffffffffffffffffffffffffff191690550190555050565b80610b96816138e8565b915050610a67565b5050565b336000818152600d602090815260408083206001600160a01b038716845290915281205490916108959185906108f9908661205e565b6000438210610c295760405162461bcd60e51b815260206004820152601f60248201527f4552433230566f7465733a20626c6f636b206e6f7420796574206d696e65640060448201526064016107e8565b6001600160a01b0383166000908152600960205260409020610998908361206a565b3360008181526010602052604090205460ff1615610cd15760405162461bcd60e51b815260206004820152602c60248201527f4578636c75646564206164647265737365732063616e6e6f742063616c6c207460448201527f6869732066756e6374696f6e000000000000000000000000000000000000000060648201526084016107e8565b6000610cdc83612127565b505050506001600160a01b0384166000908152600b6020526040902054919250610d0891905082612182565b6001600160a01b0383166000908152600b6020526040902055601554610d2e9082612182565b601555601654610d3e908461205e565b601655505050565b6005546001600160a01b03610100909104163314610d945760405162461bcd60e51b81526020600482018190526024820152600080516020613a8983398151915260448201526064016107e8565b610d9c61218e565b565b6005546001600160a01b03610100909104163314610dec5760405162461bcd60e51b81526020600482018190526024820152600080516020613a8983398151915260448201526064016107e8565b6001600160a01b03166000908152600e60205260409020805460ff19169055565b610e17338261222a565b50565b6005546001600160a01b03610100909104163314610e685760405162461bcd60e51b81526020600482018190526024820152600080516020613a8983398151915260448201526064016107e8565b6001600160a01b03166000908152600f60205260409020805460ff19166001179055565b6000601454831115610ee05760405162461bcd60e51b815260206004820152601f60248201527f416d6f756e74206d757374206265206c657373207468616e20737570706c790060448201526064016107e8565b81610eff576000610ef084612127565b50939550610899945050505050565b6000610f0a84612127565b50929550610899945050505050565b6005546001600160a01b03610100909104163314610f675760405162461bcd60e51b81526020600482018190526024820152600080516020613a8983398151915260448201526064016107e8565b6001600160a01b03811660009081526010602052604090205460ff1615610fd05760405162461bcd60e51b815260206004820152601b60248201527f4163636f756e7420697320616c7265616479206578636c75646564000000000060448201526064016107e8565b6001600160a01b0381166000908152600b60205260409020541561102a576001600160a01b0381166000908152600b602052604090205461101090610908565b6001600160a01b0382166000908152600c60205260409020555b6001600160a01b03166000818152601060205260408120805460ff191660019081179091556011805491820181559091527f31ecc21a745e3968a04e9570e4425bc18fa8019c68028196b546d1669c200c6801805473ffffffffffffffffffffffffffffffffffffffff19169091179055565b610e173382612234565b6005546001600160a01b036101009091041633146110f55760405162461bcd60e51b81526020600482018190526024820152600080516020613a8983398151915260448201526064016107e8565b601c829055601d81905561112d61110d826002613901565b61111890600a6139fd565b601c54601454611127916122d0565b90611f2b565b601f555050565b6001600160a01b038116600090815260096020526040812054610899906122dc565b6001600160a01b03811660009081526010602052604081205460ff161561119357506001600160a01b03166000908152600c602052604090205490565b6001600160a01b0382166000908152600b602052604090205461089990610908565b6005546001600160a01b036101009091041633146112035760405162461bcd60e51b81526020600482018190526024820152600080516020613a8983398151915260448201526064016107e8565b610d9c600061235c565b6112188233836123cd565b610b9e828261222a565b6001600160a01b038116600090815260066020526040812054610899565b6005546001600160a01b0361010090910416331461128e5760405162461bcd60e51b81526020600482018190526024820152600080516020613a8983398151915260448201526064016107e8565b610d9c612459565b60004382106112e75760405162461bcd60e51b815260206004820152601f60248201527f4552433230566f7465733a20626c6f636b206e6f7420796574206d696e65640060448201526064016107e8565b610899600a8361206a565b6060600480546108059061385b565b6001600160a01b0381166000908152600960205260408120548015611375576001600160a01b03831660009081526009602052604090206113436001836138bb565b815481106113535761135361388f565b60009182526020909120015464010000000090046001600160e01b0316611378565b60005b6001600160e01b03169392505050565b600061089533846108f985604051806060016040528060258152602001613aa960259139336000908152600d602090815260408083206001600160a01b038d1684529091529020549190611edc565b6000610895338484611ace565b834211156114345760405162461bcd60e51b815260206004820152601d60248201527f4552433230566f7465733a207369676e6174757265206578706972656400000060448201526064016107e8565b604080517fe48329057bfd03d55e49b547132e39cffd9c1820ad7b9d4c5307691425d15adf60208201526001600160a01b0388169181019190915260608101869052608081018590526000906114ae906114a69060a001604051602081830303815290604052805190602001206124e1565b85858561254a565b90506114b981612572565b86146115075760405162461bcd60e51b815260206004820152601960248201527f4552433230566f7465733a20696e76616c6964206e6f6e63650000000000000060448201526064016107e8565b6115118188612234565b50505050505050565b8342111561156a5760405162461bcd60e51b815260206004820152601d60248201527f45524332305065726d69743a206578706972656420646561646c696e6500000060448201526064016107e8565b60007f6e71edae12b1b97f4d1f60370fef10105fa2faae0126114a169c64845d6126c98888886115998c612572565b6040805160208101969096526001600160a01b0394851690860152929091166060840152608083015260a082015260c0810186905260e00160405160208183030381529060405280519060200120905060006115f4826124e1565b905060006116048287878761254a565b9050896001600160a01b0316816001600160a01b0316146116675760405162461bcd60e51b815260206004820152601e60248201527f45524332305065726d69743a20696e76616c6964207369676e6174757265000060448201526064016107e8565b6116728a8a8a611976565b50505050505050505050565b6005546001600160a01b036101009091041633146116cc5760405162461bcd60e51b81526020600482018190526024820152600080516020613a8983398151915260448201526064016107e8565b601b8190556014546116e59060649061112790846122d0565b601e5550565b6005546001600160a01b036101009091041633146117395760405162461bcd60e51b81526020600482018190526024820152600080516020613a8983398151915260448201526064016107e8565b601955565b6005546001600160a01b0361010090910416331461178c5760405162461bcd60e51b81526020600482018190526024820152600080516020613a8983398151915260448201526064016107e8565b6001600160a01b03166000908152600f60205260409020805460ff19169055565b60408051808201909152600080825260208201526001600160a01b0383166000908152600960205260409020805463ffffffff84169081106117f1576117f161388f565b60009182526020918290206040805180820190915291015463ffffffff8116825264010000000090046001600160e01b0316918101919091529392505050565b6005546001600160a01b0361010090910416331461187f5760405162461bcd60e51b81526020600482018190526024820152600080516020613a8983398151915260448201526064016107e8565b6001600160a01b0381166118fb5760405162461bcd60e51b815260206004820152602660248201527f4f776e61626c653a206e6577206f776e657220697320746865207a65726f206160448201527f646472657373000000000000000000000000000000000000000000000000000060648201526084016107e8565b610e178161235c565b6005546001600160a01b036101009091041633146119525760405162461bcd60e51b81526020600482018190526024820152600080516020613a8983398151915260448201526064016107e8565b6001600160a01b03166000908152600e60205260409020805460ff19166001179055565b6001600160a01b0383166119f15760405162461bcd60e51b8152602060048201526024808201527f45524332303a20617070726f76652066726f6d20746865207a65726f2061646460448201527f726573730000000000000000000000000000000000000000000000000000000060648201526084016107e8565b6001600160a01b038216611a6d5760405162461bcd60e51b815260206004820152602260248201527f45524332303a20617070726f766520746f20746865207a65726f20616464726560448201527f737300000000000000000000000000000000000000000000000000000000000060648201526084016107e8565b6001600160a01b038381166000818152600d602090815260408083209487168084529482529182902085905590518481527f8c5be1e5ebec7d5bd14f71427d1e84f3dd0314c0f7b2291e5b200ac8c7c3b925910160405180910390a3505050565b6001600160a01b038316611b4a5760405162461bcd60e51b815260206004820152602560248201527f45524332303a207472616e736665722066726f6d20746865207a65726f20616460448201527f647265737300000000000000000000000000000000000000000000000000000060648201526084016107e8565b6001600160a01b038216611bc65760405162461bcd60e51b815260206004820152602360248201527f45524332303a207472616e7366657220746f20746865207a65726f206164647260448201527f657373000000000000000000000000000000000000000000000000000000000060648201526084016107e8565b60008111611c3c5760405162461bcd60e51b815260206004820152602960248201527f5472616e7366657220616d6f756e74206d75737420626520677265617465722060448201527f7468616e207a65726f000000000000000000000000000000000000000000000060648201526084016107e8565b6001600160a01b0383166000908152600e602052604090205460ff16158015611c7e57506001600160a01b0382166000908152600e602052604090205460ff16155b611cf05760405162461bcd60e51b815260206004820152602a60248201527f426c61636b6c6973746564206164647265737365732063616e277420646f206260448201527f7579206f722073656c6c0000000000000000000000000000000000000000000060648201526084016107e8565b6005546001600160a01b038481166101009092041614801590611d2657506005546001600160a01b038381166101009092041614155b15611da357601e54811115611da35760405162461bcd60e51b815260206004820152602860248201527f5472616e7366657220616d6f756e74206578636565647320746865206d61785460448201527f78416d6f756e742e00000000000000000000000000000000000000000000000060648201526084016107e8565b6005546001600160a01b038481166101009092041614801590611dd957506005546001600160a01b038381166101009092041614155b8015611def57506001600160a01b038216600114155b15611e7f57601f5481611e0184611156565b611e0b9190613901565b1115611e7f5760405162461bcd60e51b815260206004820152602360248201527f45786365656473206d6178696d756d2077616c6c657420746f6b656e20616d6f60448201527f756e74000000000000000000000000000000000000000000000000000000000060648201526084016107e8565b6001600160a01b0383166000908152600f602052604090205460019060ff1680611ec157506001600160a01b0383166000908152600f602052604090205460ff165b15611eca575060005b611ed68484848461259a565b50505050565b60008184841115611f005760405162461bcd60e51b81526004016107e891906135d7565b505050900390565b6000806000611f15612711565b9092509050611f248282611f2b565b9250505090565b60006109988284613a09565b6000306001600160a01b037f000000000000000000000000000000000000000000000000000000000000000016148015611f9057507f000000000000000000000000000000000000000000000000000000000000000046145b15611fba57507f000000000000000000000000000000000000000000000000000000000000000090565b50604080517f00000000000000000000000000000000000000000000000000000000000000006020808301919091527f0000000000000000000000000000000000000000000000000000000000000000828401527f000000000000000000000000000000000000000000000000000000000000000060608301524660808301523060a0808401919091528351808403909101815260c0909201909252805191012090565b60006109988284613901565b8154600090815b818110156120ce5760006120858284612893565b90508486828154811061209a5761209a61388f565b60009182526020909120015463ffffffff1611156120ba578092506120c8565b6120c5816001613901565b91505b50612071565b811561211257846120e06001846138bb565b815481106120f0576120f061388f565b60009182526020909120015464010000000090046001600160e01b0316612115565b60005b6001600160e01b031695945050505050565b600080600080600080600061213b886128ae565b9050600080600061215d8b85602001518660400151612158611f08565b612937565b86516020880151604090980151939f929e50909c509a50949850965092945050505050565b600061099882846138bb565b60055460ff166121e05760405162461bcd60e51b815260206004820152601460248201527f5061757361626c653a206e6f742070617573656400000000000000000000000060448201526064016107e8565b6005805460ff191690557f5db9ee0a495bf2e6ff9c91a7834c1ba4fdd244a5e8aa4e537bd38aeae4b073aa335b6040516001600160a01b03909116815260200160405180910390a1565b610b9e8282612987565b6001600160a01b038281166000908152600860205260408120549091169061225b84611156565b6001600160a01b03858116600081815260086020526040808220805473ffffffffffffffffffffffffffffffffffffffff1916898616908117909155905194955093928616927f3134e8a2e6d97e929a7e54011ea5485d7d196dd5f0ba4d4ef95803e8e3fc257f9190a4611ed682848361299f565b60006109988284613a2b565b600063ffffffff8211156123585760405162461bcd60e51b815260206004820152602660248201527f53616665436173743a2076616c756520646f65736e27742066697420696e203360448201527f322062697473000000000000000000000000000000000000000000000000000060648201526084016107e8565b5090565b600580546001600160a01b038381166101008181027fffffffffffffffffffffff0000000000000000000000000000000000000000ff85161790945560405193909204169182907f8be0079c531659141344cd1fd0a4f28419497f9722a3daafe3b4186f6b6457e090600090a35050565b6001600160a01b038381166000908152600d60209081526040808320938616835292905220546000198114611ed6578181101561244c5760405162461bcd60e51b815260206004820152601d60248201527f45524332303a20696e73756666696369656e7420616c6c6f77616e636500000060448201526064016107e8565b611ed68484848403611976565b60055460ff16156124ac5760405162461bcd60e51b815260206004820152601060248201527f5061757361626c653a207061757365640000000000000000000000000000000060448201526064016107e8565b6005805460ff191660011790557f62e78cea01bee320cd4e420270b5ea74000d11b0c9f74754ebdbfc544b05a25861220d3390565b60006108996124ee611f37565b836040517f19010000000000000000000000000000000000000000000000000000000000006020820152602281018390526042810182905260009060620160405160208183030381529060405280519060200120905092915050565b600080600061255b87878787612add565b9150915061256881612bca565b5095945050505050565b6001600160a01b03811660009081526006602052604090208054600181018255905b50919050565b806125a7576125a7612d80565b6001600160a01b03841660009081526010602052604090205460ff1680156125e857506001600160a01b03831660009081526010602052604090205460ff16155b156125fd576125f8848484612da3565b6126fb565b6001600160a01b03841660009081526010602052604090205460ff1615801561263e57506001600160a01b03831660009081526010602052604090205460ff165b1561264e576125f8848484612ecb565b6001600160a01b03841660009081526010602052604090205460ff1615801561269057506001600160a01b03831660009081526010602052604090205460ff16155b156126a0576125f8848484612f74565b6001600160a01b03841660009081526010602052604090205460ff1680156126e057506001600160a01b03831660009081526010602052604090205460ff165b156126f0576125f8848484612fb8565b6126fb848484612f74565b80611ed657611ed6601854601755601a54601955565b6015546014546000918291825b6011548110156128635782600b6000601184815481106127405761274061388f565b60009182526020808320909101546001600160a01b0316835282019290925260400190205411806127ab575081600c6000601184815481106127845761278461388f565b60009182526020808320909101546001600160a01b03168352820192909252604001902054115b156127c157601554601454945094505050509091565b612807600b6000601184815481106127db576127db61388f565b60009182526020808320909101546001600160a01b031683528201929092526040019020548490612182565b925061284f600c6000601184815481106128235761282361388f565b60009182526020808320909101546001600160a01b031683528201929092526040019020548390612182565b91508061285b816138e8565b91505061271e565b5060145460155461287391611f2b565b82101561288a576015546014549350935050509091565b90939092509050565b60006128a26002848418613a09565b61099890848416613901565b6128d260405180606001604052806000815260200160008152602001600081525090565b6128f660405180606001604052806000815260200160008152602001600081525090565b6128ff8361302b565b602082015261290d83613047565b60408201819052602082015161292f9190612929908690612182565b90612182565b815292915050565b600080808061294688866122d0565b9050600061295488876122d0565b9050600061296288886122d0565b90506000612974826129298686612182565b939b939a50919850919650505050505050565b6129918282613063565b611ed6600a612182836131fb565b816001600160a01b0316836001600160a01b0316141580156129c15750600081115b15612ad8576001600160a01b03831615612a4f576001600160a01b038316600090815260096020526040812081906129fc90612182856131fb565b91509150846001600160a01b03167fdec2bacdd2f05b59de34da9b523dff8be42e5e38e818c82fdb0bae774387a7248383604051612a44929190918252602082015260400190565b60405180910390a250505b6001600160a01b03821615612ad8576001600160a01b03821660009081526009602052604081208190612a859061205e856131fb565b91509150836001600160a01b03167fdec2bacdd2f05b59de34da9b523dff8be42e5e38e818c82fdb0bae774387a7248383604051612acd929190918252602082015260400190565b60405180910390a250505b505050565b6000807f7fffffffffffffffffffffffffffffff5d576e7357a4501ddfe92f46681b20a0831115612b145750600090506003612bc1565b8460ff16601b14158015612b2c57508460ff16601c14155b15612b3d5750600090506004612bc1565b6040805160008082526020820180845289905260ff881692820192909252606081018690526080810185905260019060a0016020604051602081039080840390855afa158015612b91573d6000803e3d6000fd5b5050604051601f1901519150506001600160a01b038116612bba57600060019250925050612bc1565b9150600090505b94509492505050565b6000816004811115612bde57612bde613a4a565b03612be65750565b6001816004811115612bfa57612bfa613a4a565b03612c475760405162461bcd60e51b815260206004820152601860248201527f45434453413a20696e76616c6964207369676e6174757265000000000000000060448201526064016107e8565b6002816004811115612c5b57612c5b613a4a565b03612ca85760405162461bcd60e51b815260206004820152601f60248201527f45434453413a20696e76616c6964207369676e6174757265206c656e6774680060448201526064016107e8565b6003816004811115612cbc57612cbc613a4a565b03612d145760405162461bcd60e51b815260206004820152602260248201527f45434453413a20696e76616c6964207369676e6174757265202773272076616c604482015261756560f01b60648201526084016107e8565b6004816004811115612d2857612d28613a4a565b03610e175760405162461bcd60e51b815260206004820152602260248201527f45434453413a20696e76616c6964207369676e6174757265202776272076616c604482015261756560f01b60648201526084016107e8565b601754600003612d8c57565b6017805460185560198054601a5560009182905555565b600080600080600080612db587612127565b6001600160a01b038f166000908152600c6020526040902054959b50939950919750955093509150612de79088612182565b6001600160a01b038a166000908152600c6020908152604080832093909355600b90522054612e169087612182565b6001600160a01b03808b166000908152600b602052604080822093909355908a1681522054612e45908661205e565b6001600160a01b0389166000908152600b6020526040902055612e69898983613374565b612e73848361348b565b876001600160a01b0316896001600160a01b03167fddf252ad1be2c89b69c2b068fc378daa952ba7f163c4a11628f55a4df523b3ef85604051612eb891815260200190565b60405180910390a3505050505050505050565b600080600080600080612edd87612127565b6001600160a01b038f166000908152600b6020526040902054959b50939950919750955093509150612f0f9087612182565b6001600160a01b03808b166000908152600b6020908152604080832094909455918b168152600c9091522054612f45908461205e565b6001600160a01b0389166000908152600c6020908152604080832093909355600b90522054612e45908661205e565b600080600080600080612f8687612127565b6001600160a01b038f166000908152600b6020526040902054959b50939950919750955093509150612e169087612182565b600080600080600080612fca87612127565b6001600160a01b038f166000908152600c6020526040902054959b50939950919750955093509150612ffc9088612182565b6001600160a01b038a166000908152600c6020908152604080832093909355600b90522054612f0f9087612182565b60006108996064611127601754856122d090919063ffffffff16565b60006108996064611127601954856122d090919063ffffffff16565b6001600160a01b0382166130df5760405162461bcd60e51b815260206004820152602160248201527f45524332303a206275726e2066726f6d20746865207a65726f2061646472657360448201527f730000000000000000000000000000000000000000000000000000000000000060648201526084016107e8565b6130eb826000836134af565b6001600160a01b0382166000908152602081905260409020548181101561317a5760405162461bcd60e51b815260206004820152602260248201527f45524332303a206275726e20616d6f756e7420657863656564732062616c616e60448201527f636500000000000000000000000000000000000000000000000000000000000060648201526084016107e8565b6001600160a01b03831660009081526020819052604081208383039055600280548492906131a99084906138bb565b90915550506040518281526000906001600160a01b038516907fddf252ad1be2c89b69c2b068fc378daa952ba7f163c4a11628f55a4df523b3ef9060200160405180910390a3612ad883600084613502565b82546000908190801561324657856132146001836138bb565b815481106132245761322461388f565b60009182526020909120015464010000000090046001600160e01b0316613249565b60005b6001600160e01b0316925061326283858763ffffffff16565b91506000811180156132a05750438661327c6001846138bb565b8154811061328c5761328c61388f565b60009182526020909120015463ffffffff16145b15613300576132ae8261350d565b866132ba6001846138bb565b815481106132ca576132ca61388f565b9060005260206000200160000160046101000a8154816001600160e01b0302191690836001600160e01b0316021790555061336b565b856040518060400160405280613315436122dc565b63ffffffff1681526020016133298561350d565b6001600160e01b0390811690915282546001810184556000938452602093849020835194909301519091166401000000000263ffffffff909316929092179101555b50935093915050565b600061337e611f08565b9050600061338c83836122d0565b905060016001600160a01b0386163b1515148015906133b8575060016001600160a01b0385163b151514155b156133e457826014546133cb91906138bb565b6014556015546133dc9082906138bb565b601555613484565b6013546001600160a01b03166000908152600b6020526040902054613409908261205e565b601380546001600160a01b039081166000908152600b6020908152604080832095909555925490911681526010909152205460ff1615613484576013546001600160a01b03166000908152600c6020526040902054613468908461205e565b6013546001600160a01b03166000908152600c60205260409020555b5050505050565b6015546134989083612182565b6015556016546134a8908261205e565b6016555050565b60055460ff1615612ad85760405162461bcd60e51b815260206004820152601060248201527f5061757361626c653a207061757365640000000000000000000000000000000060448201526064016107e8565b612ad883838361358c565b60006001600160e01b038211156123585760405162461bcd60e51b815260206004820152602760248201527f53616665436173743a2076616c756520646f65736e27742066697420696e203260448201527f323420626974730000000000000000000000000000000000000000000000000060648201526084016107e8565b6001600160a01b03838116600090815260086020526040808220548584168352912054612ad89291821691168361299f565b6000602082840312156135d057600080fd5b5035919050565b600060208083528351808285015260005b81811015613604578581018301518582016040015282016135e8565b81811115613616576000604083870101525b50601f01601f1916929092016040019392505050565b80356001600160a01b038116811461364357600080fd5b919050565b6000806040838503121561365b57600080fd5b6136648361362c565b946020939093013593505050565b60008060006060848603121561368757600080fd5b6136908461362c565b925061369e6020850161362c565b9150604084013590509250925092565b6000602082840312156136c057600080fd5b6109988261362c565b600080604083850312156136dc57600080fd5b82359150602083013580151581146136f357600080fd5b809150509250929050565b6000806040838503121561371157600080fd5b50508035926020909101359150565b803560ff8116811461364357600080fd5b60008060008060008060c0878903121561374a57600080fd5b6137538761362c565b9550602087013594506040870135935061376f60608801613720565b92506080870135915060a087013590509295509295509295565b600080600080600080600060e0888a0312156137a457600080fd5b6137ad8861362c565b96506137bb6020890161362c565b955060408801359450606088013593506137d760808901613720565b925060a0880135915060c0880135905092959891949750929550565b6000806040838503121561380657600080fd5b61380f8361362c565b915061381d6020840161362c565b90509250929050565b6000806040838503121561383957600080fd5b6138428361362c565b9150602083013563ffffffff811681146136f357600080fd5b600181811c9082168061386f57607f821691505b60208210810361259457634e487b7160e01b600052602260045260246000fd5b634e487b7160e01b600052603260045260246000fd5b634e487b7160e01b600052601160045260246000fd5b6000828210156138cd576138cd6138a5565b500390565b634e487b7160e01b600052603160045260246000fd5b6000600182016138fa576138fa6138a5565b5060010190565b60008219821115613914576139146138a5565b500190565b600181815b8085111561395457816000190482111561393a5761393a6138a5565b8085161561394757918102915b93841c939080029061391e565b509250929050565b60008261396b57506001610899565b8161397857506000610899565b816001811461398e5760028114613998576139b4565b6001915050610899565b60ff8411156139a9576139a96138a5565b50506001821b610899565b5060208310610133831016604e8410600b84101617156139d7575081810a610899565b6139e18383613919565b80600019048211156139f5576139f56138a5565b029392505050565b6000610998838361395c565b600082613a2657634e487b7160e01b600052601260045260246000fd5b500490565b6000816000190483118215151615613a4557613a456138a5565b500290565b634e487b7160e01b600052602160045260246000fdfe45524332303a207472616e7366657220616d6f756e74206578636565647320616c6c6f77616e63654f776e61626c653a2063616c6c6572206973206e6f7420746865206f776e657245524332303a2064656372656173656420616c6c6f77616e63652062656c6f77207a65726fa26469706673582212201d05046e9b68e9ada085f6f4473582a445dc1802f0ee1fb3c1b230bef1589e2764736f6c634300080d0033",
  "devdoc": {
    "kind": "dev",
    "methods": {
      "DOMAIN_SEPARATOR()": {
        "details": "See {IERC20Permit-DOMAIN_SEPARATOR}."
      },
      "allowance(address,address)": {
        "details": "See {IERC20-allowance}."
      },
      "approve(address,uint256)": {
        "details": "See {IERC20-approve}. NOTE: If `amount` is the maximum `uint256`, the allowance is not updated on `transferFrom`. This is semantically equivalent to an infinite approval. Requirements: - `spender` cannot be the zero address."
      },
      "balanceOf(address)": {
        "details": "See {IERC20-balanceOf}."
      },
      "burn(uint256)": {
        "details": "Destroys `amount` tokens from the caller. See {ERC20-_burn}."
      },
      "burnFrom(address,uint256)": {
        "details": "Destroys `amount` tokens from `account`, deducting from the caller's allowance. See {ERC20-_burn} and {ERC20-allowance}. Requirements: - the caller must have allowance for ``accounts``'s tokens of at least `amount`."
      },
      "checkpoints(address,uint32)": {
        "details": "Get the `pos`-th checkpoint for `account`."
      },
      "decimals()": {
        "details": "Returns the number of decimals used to get its user representation. For example, if `decimals` equals `2`, a balance of `505` tokens should be displayed to a user as `5.05` (`505 / 10 ** 2`). Tokens usually opt for a value of 18, imitating the relationship between Ether and Wei. This is the value {ERC20} uses, unless this function is overridden; NOTE: This information is only used for _display_ purposes: it in no way affects any of the arithmetic of the contract, including {IERC20-balanceOf} and {IERC20-transfer}."
      },
      "decreaseAllowance(address,uint256)": {
        "details": "Atomically decreases the allowance granted to `spender` by the caller. This is an alternative to {approve} that can be used as a mitigation for problems described in {IERC20-approve}. Emits an {Approval} event indicating the updated allowance. Requirements: - `spender` cannot be the zero address. - `spender` must have allowance for the caller of at least `subtractedValue`."
      },
      "delegate(address)": {
        "details": "Delegate votes from the sender to `delegatee`."
      },
      "delegateBySig(address,uint256,uint256,uint8,bytes32,bytes32)": {
        "details": "Delegates votes from signer to `delegatee`"
      },
      "delegates(address)": {
        "details": "Get the address `account` is currently delegating to."
      },
      "getPastTotalSupply(uint256)": {
        "details": "Retrieve the `totalSupply` at the end of `blockNumber`. Note, this value is the sum of all balances. It is but NOT the sum of all the delegated votes! Requirements: - `blockNumber` must have been already mined"
      },
      "getPastVotes(address,uint256)": {
        "details": "Retrieve the number of votes for `account` at the end of `blockNumber`. Requirements: - `blockNumber` must have been already mined"
      },
      "getVotes(address)": {
        "details": "Gets the current votes balance for `account`"
      },
      "increaseAllowance(address,uint256)": {
        "details": "Atomically increases the allowance granted to `spender` by the caller. This is an alternative to {approve} that can be used as a mitigation for problems described in {IERC20-approve}. Emits an {Approval} event indicating the updated allowance. Requirements: - `spender` cannot be the zero address."
      },
      "name()": {
        "details": "Returns the name of the token."
      },
      "nonces(address)": {
        "details": "See {IERC20Permit-nonces}."
      },
      "numCheckpoints(address)": {
        "details": "Get number of checkpoints for `account`."
      },
      "owner()": {
        "details": "Returns the address of the current owner."
      },
      "paused()": {
        "details": "Returns true if the contract is paused, and false otherwise."
      },
      "permit(address,address,uint256,uint256,uint8,bytes32,bytes32)": {
        "details": "See {IERC20Permit-permit}."
      },
      "renounceOwnership()": {
        "details": "Leaves the contract without owner. It will not be possible to call `onlyOwner` functions anymore. Can only be called by the current owner. NOTE: Renouncing ownership will leave the contract without an owner, thereby removing any functionality that is only available to the owner."
      },
      "symbol()": {
        "details": "Returns the symbol of the token, usually a shorter version of the name."
      },
      "totalSupply()": {
        "details": "See {IERC20-totalSupply}."
      },
      "transferOwnership(address)": {
        "details": "Transfers ownership of the contract to a new account (`newOwner`). Can only be called by the current owner."
      }
    },
    "version": 1
  },
  "userdoc": {
    "kind": "user",
    "methods": {},
    "version": 1
  },
  "storageLayout": {
    "storage": [
      {
        "astId": 330,
        "contract": "contracts/PogoToken.sol:PogoToken",
        "label": "_balances",
        "offset": 0,
        "slot": "0",
        "type": "t_mapping(t_address,t_uint256)"
      },
      {
        "astId": 336,
        "contract": "contracts/PogoToken.sol:PogoToken",
        "label": "_allowances",
        "offset": 0,
        "slot": "1",
        "type": "t_mapping(t_address,t_mapping(t_address,t_uint256))"
      },
      {
        "astId": 338,
        "contract": "contracts/PogoToken.sol:PogoToken",
        "label": "_totalSupply",
        "offset": 0,
        "slot": "2",
        "type": "t_uint256"
      },
      {
        "astId": 340,
        "contract": "contracts/PogoToken.sol:PogoToken",
        "label": "_name",
        "offset": 0,
        "slot": "3",
        "type": "t_string_storage"
      },
      {
        "astId": 342,
        "contract": "contracts/PogoToken.sol:PogoToken",
        "label": "_symbol",
        "offset": 0,
        "slot": "4",
        "type": "t_string_storage"
      },
      {
        "astId": 200,
        "contract": "contracts/PogoToken.sol:PogoToken",
        "label": "_paused",
        "offset": 0,
        "slot": "5",
        "type": "t_bool"
      },
      {
        "astId": 7,
        "contract": "contracts/PogoToken.sol:PogoToken",
        "label": "_owner",
        "offset": 1,
        "slot": "5",
        "type": "t_address"
      },
      {
        "astId": 1707,
        "contract": "contracts/PogoToken.sol:PogoToken",
        "label": "_nonces",
        "offset": 0,
        "slot": "6",
        "type": "t_mapping(t_address,t_struct(Counter)2439_storage)"
      },
      {
        "astId": 1715,
        "contract": "contracts/PogoToken.sol:PogoToken",
        "label": "_PERMIT_TYPEHASH_DEPRECATED_SLOT",
        "offset": 0,
        "slot": "7",
        "type": "t_bytes32"
      },
      {
        "astId": 1048,
        "contract": "contracts/PogoToken.sol:PogoToken",
        "label": "_delegates",
        "offset": 0,
        "slot": "8",
        "type": "t_mapping(t_address,t_address)"
      },
      {
        "astId": 1054,
        "contract": "contracts/PogoToken.sol:PogoToken",
        "label": "_checkpoints",
        "offset": 0,
        "slot": "9",
        "type": "t_mapping(t_address,t_array(t_struct(Checkpoint)1039_storage)dyn_storage)"
      },
      {
        "astId": 1058,
        "contract": "contracts/PogoToken.sol:PogoToken",
        "label": "_totalSupplyCheckpoints",
        "offset": 0,
        "slot": "10",
        "type": "t_array(t_struct(Checkpoint)1039_storage)dyn_storage"
      },
      {
        "astId": 6623,
        "contract": "contracts/PogoToken.sol:PogoToken",
        "label": "_rOwned",
        "offset": 0,
        "slot": "11",
        "type": "t_mapping(t_address,t_uint256)"
      },
      {
        "astId": 6627,
        "contract": "contracts/PogoToken.sol:PogoToken",
        "label": "_tOwned",
        "offset": 0,
        "slot": "12",
        "type": "t_mapping(t_address,t_uint256)"
      },
      {
        "astId": 6633,
        "contract": "contracts/PogoToken.sol:PogoToken",
        "label": "_allowances",
        "offset": 0,
        "slot": "13",
        "type": "t_mapping(t_address,t_mapping(t_address,t_uint256))"
      },
      {
        "astId": 6637,
        "contract": "contracts/PogoToken.sol:PogoToken",
        "label": "_isBlacklisted",
        "offset": 0,
        "slot": "14",
        "type": "t_mapping(t_address,t_bool)"
      },
      {
        "astId": 6641,
        "contract": "contracts/PogoToken.sol:PogoToken",
        "label": "_isExcludedFromFee",
        "offset": 0,
        "slot": "15",
        "type": "t_mapping(t_address,t_bool)"
      },
      {
        "astId": 6645,
        "contract": "contracts/PogoToken.sol:PogoToken",
        "label": "_isExcluded",
        "offset": 0,
        "slot": "16",
        "type": "t_mapping(t_address,t_bool)"
      },
      {
        "astId": 6648,
        "contract": "contracts/PogoToken.sol:PogoToken",
        "label": "_excluded",
        "offset": 0,
        "slot": "17",
        "type": "t_array(t_address)dyn_storage"
      },
      {
        "astId": 6651,
        "contract": "contracts/PogoToken.sol:PogoToken",
        "label": "_pogoInvestmentFund",
        "offset": 0,
        "slot": "18",
        "type": "t_address"
      },
      {
        "astId": 6654,
        "contract": "contracts/PogoToken.sol:PogoToken",
        "label": "_donationWalletAddress",
        "offset": 0,
        "slot": "19",
        "type": "t_address"
      },
      {
        "astId": 6668,
        "contract": "contracts/PogoToken.sol:PogoToken",
        "label": "_tTotal",
        "offset": 0,
        "slot": "20",
        "type": "t_uint256"
      },
      {
        "astId": 6677,
        "contract": "contracts/PogoToken.sol:PogoToken",
        "label": "_rTotal",
        "offset": 0,
        "slot": "21",
        "type": "t_uint256"
      },
      {
        "astId": 6679,
        "contract": "contracts/PogoToken.sol:PogoToken",
        "label": "_tFeeTotal",
        "offset": 0,
        "slot": "22",
        "type": "t_uint256"
      },
      {
        "astId": 6682,
        "contract": "contracts/PogoToken.sol:PogoToken",
        "label": "_taxFee",
        "offset": 0,
        "slot": "23",
        "type": "t_uint256"
      },
      {
        "astId": 6685,
        "contract": "contracts/PogoToken.sol:PogoToken",
        "label": "_previousTaxFee",
        "offset": 0,
        "slot": "24",
        "type": "t_uint256"
      },
      {
        "astId": 6688,
        "contract": "contracts/PogoToken.sol:PogoToken",
        "label": "_fundOrBurnFee",
        "offset": 0,
        "slot": "25",
        "type": "t_uint256"
      },
      {
        "astId": 6691,
        "contract": "contracts/PogoToken.sol:PogoToken",
        "label": "_previousFundOrBurnFee",
        "offset": 0,
        "slot": "26",
        "type": "t_uint256"
      },
      {
        "astId": 6694,
        "contract": "contracts/PogoToken.sol:PogoToken",
        "label": "_maxTxPercent",
        "offset": 0,
        "slot": "27",
        "type": "t_uint256"
      },
      {
        "astId": 6697,
        "contract": "contracts/PogoToken.sol:PogoToken",
        "label": "_maxWalletPercent",
        "offset": 0,
        "slot": "28",
        "type": "t_uint256"
      },
      {
        "astId": 6700,
        "contract": "contracts/PogoToken.sol:PogoToken",
        "label": "_maxWalletDecimal",
        "offset": 0,
        "slot": "29",
        "type": "t_uint256"
      },
      {
        "astId": 6711,
        "contract": "contracts/PogoToken.sol:PogoToken",
        "label": "_maxTxAmount",
        "offset": 0,
        "slot": "30",
        "type": "t_uint256"
      },
      {
        "astId": 6723,
        "contract": "contracts/PogoToken.sol:PogoToken",
        "label": "_maxWalletAmount",
        "offset": 0,
        "slot": "31",
        "type": "t_uint256"
      }
    ],
    "types": {
      "t_address": {
        "encoding": "inplace",
        "label": "address",
        "numberOfBytes": "20"
      },
      "t_array(t_address)dyn_storage": {
        "base": "t_address",
        "encoding": "dynamic_array",
        "label": "address[]",
        "numberOfBytes": "32"
      },
      "t_array(t_struct(Checkpoint)1039_storage)dyn_storage": {
        "base": "t_struct(Checkpoint)1039_storage",
        "encoding": "dynamic_array",
        "label": "struct ERC20Votes.Checkpoint[]",
        "numberOfBytes": "32"
      },
      "t_bool": {
        "encoding": "inplace",
        "label": "bool",
        "numberOfBytes": "1"
      },
      "t_bytes32": {
        "encoding": "inplace",
        "label": "bytes32",
        "numberOfBytes": "32"
      },
      "t_mapping(t_address,t_address)": {
        "encoding": "mapping",
        "key": "t_address",
        "label": "mapping(address => address)",
        "numberOfBytes": "32",
        "value": "t_address"
      },
      "t_mapping(t_address,t_array(t_struct(Checkpoint)1039_storage)dyn_storage)": {
        "encoding": "mapping",
        "key": "t_address",
        "label": "mapping(address => struct ERC20Votes.Checkpoint[])",
        "numberOfBytes": "32",
        "value": "t_array(t_struct(Checkpoint)1039_storage)dyn_storage"
      },
      "t_mapping(t_address,t_bool)": {
        "encoding": "mapping",
        "key": "t_address",
        "label": "mapping(address => bool)",
        "numberOfBytes": "32",
        "value": "t_bool"
      },
      "t_mapping(t_address,t_mapping(t_address,t_uint256))": {
        "encoding": "mapping",
        "key": "t_address",
        "label": "mapping(address => mapping(address => uint256))",
        "numberOfBytes": "32",
        "value": "t_mapping(t_address,t_uint256)"
      },
      "t_mapping(t_address,t_struct(Counter)2439_storage)": {
        "encoding": "mapping",
        "key": "t_address",
        "label": "mapping(address => struct Counters.Counter)",
        "numberOfBytes": "32",
        "value": "t_struct(Counter)2439_storage"
      },
      "t_mapping(t_address,t_uint256)": {
        "encoding": "mapping",
        "key": "t_address",
        "label": "mapping(address => uint256)",
        "numberOfBytes": "32",
        "value": "t_uint256"
      },
      "t_string_storage": {
        "encoding": "bytes",
        "label": "string",
        "numberOfBytes": "32"
      },
      "t_struct(Checkpoint)1039_storage": {
        "encoding": "inplace",
        "label": "struct ERC20Votes.Checkpoint",
        "members": [
          {
            "astId": 1036,
            "contract": "contracts/PogoToken.sol:PogoToken",
            "label": "fromBlock",
            "offset": 0,
            "slot": "0",
            "type": "t_uint32"
          },
          {
            "astId": 1038,
            "contract": "contracts/PogoToken.sol:PogoToken",
            "label": "votes",
            "offset": 4,
            "slot": "0",
            "type": "t_uint224"
          }
        ],
        "numberOfBytes": "32"
      },
      "t_struct(Counter)2439_storage": {
        "encoding": "inplace",
        "label": "struct Counters.Counter",
        "members": [
          {
            "astId": 2438,
            "contract": "contracts/PogoToken.sol:PogoToken",
            "label": "_value",
            "offset": 0,
            "slot": "0",
            "type": "t_uint256"
          }
        ],
        "numberOfBytes": "32"
      },
      "t_uint224": {
        "encoding": "inplace",
        "label": "uint224",
        "numberOfBytes": "28"
      },
      "t_uint256": {
        "encoding": "inplace",
        "label": "uint256",
        "numberOfBytes": "32"
      },
      "t_uint32": {
        "encoding": "inplace",
        "label": "uint32",
        "numberOfBytes": "4"
      }
    }
  }
}